{
  "contractName": "PollApp",
  "abi": [
    {
      "anonymous": false,
      "inputs": [
        {
          "indexed": true,
          "internalType": "address",
          "name": "creator",
          "type": "address"
        },
        {
          "indexed": false,
          "internalType": "uint256",
          "name": "pollNumber",
          "type": "uint256"
        }
      ],
      "name": "PollCreated",
      "type": "event"
    },
    {
      "anonymous": false,
      "inputs": [
        {
          "indexed": true,
          "internalType": "address",
          "name": "user",
          "type": "address"
        },
        {
          "indexed": false,
          "internalType": "uint256",
          "name": "pollNumber",
          "type": "uint256"
        },
        {
          "indexed": false,
          "internalType": "uint8",
          "name": "option",
          "type": "uint8"
        }
      ],
      "name": "UserVoted",
      "type": "event"
    },
    {
      "inputs": [
        {
          "internalType": "uint256",
          "name": "",
          "type": "uint256"
        },
        {
          "internalType": "uint256",
          "name": "",
          "type": "uint256"
        }
      ],
      "name": "pollVotes",
      "outputs": [
        {
          "internalType": "address",
          "name": "",
          "type": "address"
        }
      ],
      "stateMutability": "view",
      "type": "function",
      "constant": true
    },
    {
      "inputs": [
        {
          "internalType": "uint256",
          "name": "",
          "type": "uint256"
        }
      ],
      "name": "pollsArray",
      "outputs": [
        {
          "internalType": "address",
          "name": "creator",
          "type": "address"
        },
        {
          "internalType": "string",
          "name": "question",
          "type": "string"
        },
        {
          "internalType": "uint8",
          "name": "numberOfOptions",
          "type": "uint8"
        },
        {
          "internalType": "uint8",
          "name": "timeLimit",
          "type": "uint8"
        },
        {
          "internalType": "uint256",
          "name": "timeCreated",
          "type": "uint256"
        }
      ],
      "stateMutability": "view",
      "type": "function",
      "constant": true
    },
    {
      "inputs": [
        {
          "internalType": "address",
          "name": "",
          "type": "address"
        },
        {
          "internalType": "uint256",
          "name": "",
          "type": "uint256"
        }
      ],
      "name": "userVotes",
      "outputs": [
        {
          "internalType": "uint256",
          "name": "poll",
          "type": "uint256"
        },
        {
          "internalType": "uint8",
          "name": "option",
          "type": "uint8"
        }
      ],
      "stateMutability": "view",
      "type": "function",
      "constant": true
    },
    {
      "inputs": [
        {
          "internalType": "string",
          "name": "_question",
          "type": "string"
        },
        {
          "internalType": "uint8",
          "name": "_timeLimit",
          "type": "uint8"
        },
        {
          "internalType": "uint8",
          "name": "_numberOfOptions",
          "type": "uint8"
        },
        {
          "internalType": "string[]",
          "name": "_options",
          "type": "string[]"
        }
      ],
      "name": "createPoll",
      "outputs": [],
      "stateMutability": "nonpayable",
      "type": "function"
    },
    {
      "inputs": [
        {
          "internalType": "uint256",
          "name": "_pollNumber",
          "type": "uint256"
        },
        {
          "internalType": "uint8",
          "name": "_optionNumber",
          "type": "uint8"
        }
      ],
      "name": "vote",
      "outputs": [],
      "stateMutability": "nonpayable",
      "type": "function"
    },
    {
      "inputs": [],
      "name": "getAllPolls",
      "outputs": [
        {
          "components": [
            {
              "internalType": "address",
              "name": "creator",
              "type": "address"
            },
            {
              "internalType": "string",
              "name": "question",
              "type": "string"
            },
            {
              "internalType": "string[]",
              "name": "options",
              "type": "string[]"
            },
            {
              "internalType": "uint8",
              "name": "numberOfOptions",
              "type": "uint8"
            },
            {
              "internalType": "uint8",
              "name": "timeLimit",
              "type": "uint8"
            },
            {
              "internalType": "uint256",
              "name": "timeCreated",
              "type": "uint256"
            },
            {
              "internalType": "uint256[]",
              "name": "votes",
              "type": "uint256[]"
            }
          ],
          "internalType": "struct PollApp.Poll[]",
          "name": "",
          "type": "tuple[]"
        }
      ],
      "stateMutability": "view",
      "type": "function",
      "constant": true
    },
    {
      "inputs": [
        {
          "internalType": "uint256",
          "name": "_pollNumber",
          "type": "uint256"
        }
      ],
      "name": "getVotes",
      "outputs": [
        {
          "internalType": "uint256[]",
          "name": "votes",
          "type": "uint256[]"
        }
      ],
      "stateMutability": "view",
      "type": "function",
      "constant": true
    },
    {
      "inputs": [
        {
          "internalType": "address",
          "name": "_userAddress",
          "type": "address"
        }
      ],
      "name": "getUserVotes",
      "outputs": [
        {
          "components": [
            {
              "internalType": "uint256",
              "name": "poll",
              "type": "uint256"
            },
            {
              "internalType": "uint8",
              "name": "option",
              "type": "uint8"
            }
          ],
          "internalType": "struct PollApp.Vote[]",
          "name": "votes",
          "type": "tuple[]"
        }
      ],
      "stateMutability": "view",
      "type": "function",
      "constant": true
    },
    {
      "inputs": [
        {
          "internalType": "uint256",
          "name": "_pollNumber",
          "type": "uint256"
        }
      ],
      "name": "getPollVotedUsers",
      "outputs": [
        {
          "internalType": "address[]",
          "name": "users",
          "type": "address[]"
        }
      ],
      "stateMutability": "view",
      "type": "function",
      "constant": true
    },
    {
      "inputs": [
        {
          "internalType": "uint256",
          "name": "_pollNumber",
          "type": "uint256"
        },
        {
          "internalType": "address",
          "name": "_userAddress",
          "type": "address"
        }
      ],
      "name": "getUserPollVote",
      "outputs": [
        {
          "components": [
            {
              "internalType": "uint256",
              "name": "poll",
              "type": "uint256"
            },
            {
              "internalType": "uint8",
              "name": "option",
              "type": "uint8"
            }
          ],
          "internalType": "struct PollApp.Vote",
          "name": "userVote",
          "type": "tuple"
        }
      ],
      "stateMutability": "view",
      "type": "function",
      "constant": true
    }
  ],
  "bytecode": "0x608060405234801561001057600080fd5b50612b3b806100206000396000f3fe608060405234801561001057600080fd5b506004361061009e5760003560e01c8063950c782211610066578063950c782214610172578063a38ace3c146101a2578063a5662583146101be578063fede8a79146101ee578063ff9810991461021e5761009e565b806332b633fa146100a35780634534b99e146100c15780638b3511f7146100f5578063934df0e114610126578063943e821614610156575b600080fd5b6100ab61024e565b6040516100b89190611b93565b60405180910390f35b6100db60048036038101906100d69190611bf5565b61050a565b6040516100ec959493929190611c99565b60405180910390f35b61010f600480360381019061010a9190611d1f565b610612565b60405161011d929190611d5f565b60405180910390f35b610140600480360381019061013b9190611d88565b610660565b60405161014d9190611dc8565b60405180910390f35b610170600480360381019061016b9190611e0f565b6106ae565b005b61018c60048036038101906101879190611e4f565b610d79565b6040516101999190611f5a565b60405180910390f35b6101bc60048036038101906101b79190612197565b610e3e565b005b6101d860048036038101906101d39190611bf5565b61120b565b6040516101e591906122e5565b60405180910390f35b61020860048036038101906102039190612307565b6112f5565b6040516102159190612376565b60405180910390f35b61023860048036038101906102339190611bf5565b6114b7565b6040516102459190612400565b60405180910390f35b60606000805480602002602001604051908101604052809291908181526020016000905b8282101561050157838290600052602060002090600602016040518060e00160405290816000820160009054906101000a900473ffffffffffffffffffffffffffffffffffffffff1673ffffffffffffffffffffffffffffffffffffffff1673ffffffffffffffffffffffffffffffffffffffff1681526020016001820180546102fb90612451565b80601f016020809104026020016040519081016040528092919081815260200182805461032790612451565b80156103745780601f1061034957610100808354040283529160200191610374565b820191906000526020600020905b81548152906001019060200180831161035757829003601f168201915b5050505050815260200160028201805480602002602001604051908101604052809291908181526020016000905b8282101561044e5783829060005260206000200180546103c190612451565b80601f01602080910402602001604051908101604052809291908181526020018280546103ed90612451565b801561043a5780601f1061040f5761010080835404028352916020019161043a565b820191906000526020600020905b81548152906001019060200180831161041d57829003601f168201915b5050505050815260200190600101906103a2565b5050505081526020016003820160009054906101000a900460ff1660ff1660ff1681526020016003820160019054906101000a900460ff1660ff1660ff16815260200160048201548152602001600582018054806020026020016040519081016040528092919081815260200182805480156104e957602002820191906000526020600020905b8154815260200190600101908083116104d5575b50505050508152505081526020019060010190610272565b50505050905090565b6000818154811061051a57600080fd5b90600052602060002090600602016000915090508060000160009054906101000a900473ffffffffffffffffffffffffffffffffffffffff169080600101805461056390612451565b80601f016020809104026020016040519081016040528092919081815260200182805461058f90612451565b80156105dc5780601f106105b1576101008083540402835291602001916105dc565b820191906000526020600020905b8154815290600101906020018083116105bf57829003601f168201915b5050505050908060030160009054906101000a900460ff16908060030160019054906101000a900460ff16908060040154905085565b6001602052816000526040600020818154811061062e57600080fd5b9060005260206000209060020201600091509150508060000154908060010160009054906101000a900460ff16905082565b6002602052816000526040600020818154811061067c57600080fd5b906000526020600020016000915091509054906101000a900473ffffffffffffffffffffffffffffffffffffffff1681565b8160008054905081106106f6576040517f08c379a00000000000000000000000000000000000000000000000000000000081526004016106ed906124cf565b60405180910390fd5b8282600080838154811061070d5761070c6124ef565b5b90600052602060002090600602016040518060e00160405290816000820160009054906101000a900473ffffffffffffffffffffffffffffffffffffffff1673ffffffffffffffffffffffffffffffffffffffff1673ffffffffffffffffffffffffffffffffffffffff16815260200160018201805461078c90612451565b80601f01602080910402602001604051908101604052809291908181526020018280546107b890612451565b80156108055780601f106107da57610100808354040283529160200191610805565b820191906000526020600020905b8154815290600101906020018083116107e857829003601f168201915b5050505050815260200160028201805480602002602001604051908101604052809291908181526020016000905b828210156108df57838290600052602060002001805461085290612451565b80601f016020809104026020016040519081016040528092919081815260200182805461087e90612451565b80156108cb5780601f106108a0576101008083540402835291602001916108cb565b820191906000526020600020905b8154815290600101906020018083116108ae57829003601f168201915b505050505081526020019060010190610833565b5050505081526020016003820160009054906101000a900460ff1660ff1660ff1681526020016003820160019054906101000a900460ff1660ff1660ff168152602001600482015481526020016005820180548060200260200160405190810160405280929190818152602001828054801561097a57602002820191906000526020600020905b815481526020019060010190808311610966575b5050505050815250509050806060015160ff168260ff16106109d1576040517f08c379a00000000000000000000000000000000000000000000000000000000081526004016109c89061256a565b60405180910390fd5b806000015173ffffffffffffffffffffffffffffffffffffffff163373ffffffffffffffffffffffffffffffffffffffff161415610a44576040517f08c379a0000000000000000000000000000000000000000000000000000000008152600401610a3b906125d6565b60405180910390fd5b610e10816080015160ff16610a599190612633565b61ffff168160a00151610a6c919061266f565b421115610aae576040517f08c379a0000000000000000000000000000000000000000000000000000000008152600401610aa590612711565b60405180910390fd5b60005b6002600088815260200190815260200160002080549050811015610ba0573373ffffffffffffffffffffffffffffffffffffffff16600260008981526020019081526020016000208281548110610b0b57610b0a6124ef565b5b9060005260206000200160009054906101000a900473ffffffffffffffffffffffffffffffffffffffff1673ffffffffffffffffffffffffffffffffffffffff161415610b8d576040517f08c379a0000000000000000000000000000000000000000000000000000000008152600401610b849061277d565b60405180910390fd5b8080610b989061279d565b915050610ab1565b506000808781548110610bb657610bb56124ef565b5b90600052602060002090600602019050806005018660ff1681548110610bdf57610bde6124ef565b5b906000526020600020016000815480929190610bfa9061279d565b9190505550600160003373ffffffffffffffffffffffffffffffffffffffff1673ffffffffffffffffffffffffffffffffffffffff16815260200190815260200160002060405180604001604052808981526020018860ff1681525090806001815401808255809150506001900390600052602060002090600202016000909190919091506000820151816000015560208201518160010160006101000a81548160ff021916908360ff160217905550505060026000888152602001908152602001600020339080600181540180825580915050600190039060005260206000200160009091909190916101000a81548173ffffffffffffffffffffffffffffffffffffffff021916908373ffffffffffffffffffffffffffffffffffffffff1602179055503373ffffffffffffffffffffffffffffffffffffffff167f98855b7ed43590b2e2c6cd6ddab25b57bdd2d003771000174e0639eb22615bfa8888604051610d68929190611d5f565b60405180910390a250505050505050565b6060600160008373ffffffffffffffffffffffffffffffffffffffff1673ffffffffffffffffffffffffffffffffffffffff168152602001908152602001600020805480602002602001604051908101604052809291908181526020016000905b82821015610e335783829060005260206000209060020201604051806040016040529081600082015481526020016001820160009054906101000a900460ff1660ff1660ff168152505081526020019060010190610dda565b505050509050919050565b838382604051602001610e509061280c565b6040516020818303038152906040528051906020012083604051602001610e77919061282c565b604051602081830303815290604052805190602001201415610ece576040517f08c379a0000000000000000000000000000000000000000000000000000000008152600401610ec59061289a565b60405180910390fd5b60008260ff1611610f14576040517f08c379a0000000000000000000000000000000000000000000000000000000008152600401610f0b9061292c565b60405180910390fd5b60188260ff161115610f5b576040517f08c379a0000000000000000000000000000000000000000000000000000000008152600401610f52906129be565b60405180910390fd5b600181511415610fa0576040517f08c379a0000000000000000000000000000000000000000000000000000000008152600401610f9790612a2a565b60405180910390fd5b8460ff16845114610fb057835194505b610fb861157d565b87816020018190525033816000019073ffffffffffffffffffffffffffffffffffffffff16908173ffffffffffffffffffffffffffffffffffffffff168152505086816080019060ff16908160ff168152505085816060019060ff16908160ff1681525050848160400181905250428160a001818152505060008660ff1667ffffffffffffffff81111561104f5761104e611f86565b5b60405190808252806020026020018201604052801561107d5781602001602082028036833780820191505090505b509050808260c00181905250600082908060018154018082558091505060019003906000526020600020906006020160009091909190915060008201518160000160006101000a81548173ffffffffffffffffffffffffffffffffffffffff021916908373ffffffffffffffffffffffffffffffffffffffff16021790555060208201518160010190805190602001906111189291906115d6565b50604082015181600201908051906020019061113592919061165c565b5060608201518160030160006101000a81548160ff021916908360ff16021790555060808201518160030160016101000a81548160ff021916908360ff16021790555060a0820151816004015560c082015181600501908051906020019061119e9291906116bc565b5050503373ffffffffffffffffffffffffffffffffffffffff167f253458ed40d765e300ef79d87f8b5a901191fbfc27d54b1ea052a6752908953c60016000805490506111eb9190612a4a565b6040516111f89190612a7e565b60405180910390a2505050505050505050565b6060816000805490508110611255576040517f08c379a000000000000000000000000000000000000000000000000000000000815260040161124c906124cf565b60405180910390fd5b600260008481526020019081526020016000208054806020026020016040519081016040528092919081815260200182805480156112e857602002820191906000526020600020905b8160009054906101000a900473ffffffffffffffffffffffffffffffffffffffff1673ffffffffffffffffffffffffffffffffffffffff168152602001906001019080831161129e575b5050505050915050919050565b6112fd611709565b826000805490508110611345576040517f08c379a000000000000000000000000000000000000000000000000000000000815260040161133c906124cf565b60405180910390fd5b6000600160008573ffffffffffffffffffffffffffffffffffffffff1673ffffffffffffffffffffffffffffffffffffffff168152602001908152602001600020805480602002602001604051908101604052809291908181526020016000905b828210156113ff5783829060005260206000209060020201604051806040016040529081600082015481526020016001820160009054906101000a900460ff1660ff1660ff1681525050815260200190600101906113a6565b5050505090506000805b825181101561146d5786838281518110611426576114256124ef565b5b602002602001015160000151141561145a576001915082818151811061144f5761144e6124ef565b5b602002602001015194505b80806114659061279d565b915050611409565b50806114ae576040517f08c379a00000000000000000000000000000000000000000000000000000000081526004016114a590612ae5565b60405180910390fd5b50505092915050565b6060816000805490508110611501576040517f08c379a00000000000000000000000000000000000000000000000000000000081526004016114f8906124cf565b60405180910390fd5b60008381548110611515576115146124ef565b5b906000526020600020906006020160050180548060200260200160405190810160405280929190818152602001828054801561157057602002820191906000526020600020905b81548152602001906001019080831161155c575b5050505050915050919050565b6040518060e00160405280600073ffffffffffffffffffffffffffffffffffffffff1681526020016060815260200160608152602001600060ff168152602001600060ff16815260200160008152602001606081525090565b8280546115e290612451565b90600052602060002090601f016020900481019282611604576000855561164b565b82601f1061161d57805160ff191683800117855561164b565b8280016001018555821561164b579182015b8281111561164a57825182559160200191906001019061162f565b5b5090506116589190611726565b5090565b8280548282559060005260206000209081019282156116ab579160200282015b828111156116aa57825182908051906020019061169a9291906115d6565b509160200191906001019061167c565b5b5090506116b89190611743565b5090565b8280548282559060005260206000209081019282156116f8579160200282015b828111156116f75782518255916020019190600101906116dc565b5b5090506117059190611726565b5090565b604051806040016040528060008152602001600060ff1681525090565b5b8082111561173f576000816000905550600101611727565b5090565b5b80821115611763576000818161175a9190611767565b50600101611744565b5090565b50805461177390612451565b6000825580601f1061178557506117a4565b601f0160209004906000526020600020908101906117a39190611726565b5b50565b600081519050919050565b600082825260208201905092915050565b6000819050602082019050919050565b600073ffffffffffffffffffffffffffffffffffffffff82169050919050565b60006117fe826117d3565b9050919050565b61180e816117f3565b82525050565b600081519050919050565b600082825260208201905092915050565b60005b8381101561184e578082015181840152602081019050611833565b8381111561185d576000848401525b50505050565b6000601f19601f8301169050919050565b600061187f82611814565b611889818561181f565b9350611899818560208601611830565b6118a281611863565b840191505092915050565b600081519050919050565b600082825260208201905092915050565b6000819050602082019050919050565b60006118e58383611874565b905092915050565b6000602082019050919050565b6000611905826118ad565b61190f81856118b8565b935083602082028501611921856118c9565b8060005b8581101561195d578484038952815161193e85826118d9565b9450611949836118ed565b925060208a01995050600181019050611925565b50829750879550505050505092915050565b600060ff82169050919050565b6119858161196f565b82525050565b6000819050919050565b61199e8161198b565b82525050565b600081519050919050565b600082825260208201905092915050565b6000819050602082019050919050565b60006119dc8383611995565b60208301905092915050565b6000602082019050919050565b6000611a00826119a4565b611a0a81856119af565b9350611a15836119c0565b8060005b83811015611a46578151611a2d88826119d0565b9750611a38836119e8565b925050600181019050611a19565b5085935050505092915050565b600060e083016000830151611a6b6000860182611805565b5060208301518482036020860152611a838282611874565b91505060408301518482036040860152611a9d82826118fa565b9150506060830151611ab2606086018261197c565b506080830151611ac5608086018261197c565b5060a0830151611ad860a0860182611995565b5060c083015184820360c0860152611af082826119f5565b9150508091505092915050565b6000611b098383611a53565b905092915050565b6000602082019050919050565b6000611b29826117a7565b611b3381856117b2565b935083602082028501611b45856117c3565b8060005b85811015611b815784840389528151611b628582611afd565b9450611b6d83611b11565b925060208a01995050600181019050611b49565b50829750879550505050505092915050565b60006020820190508181036000830152611bad8184611b1e565b905092915050565b6000604051905090565b600080fd5b600080fd5b611bd28161198b565b8114611bdd57600080fd5b50565b600081359050611bef81611bc9565b92915050565b600060208284031215611c0b57611c0a611bbf565b5b6000611c1984828501611be0565b91505092915050565b611c2b816117f3565b82525050565b600082825260208201905092915050565b6000611c4d82611814565b611c578185611c31565b9350611c67818560208601611830565b611c7081611863565b840191505092915050565b611c848161196f565b82525050565b611c938161198b565b82525050565b600060a082019050611cae6000830188611c22565b8181036020830152611cc08187611c42565b9050611ccf6040830186611c7b565b611cdc6060830185611c7b565b611ce96080830184611c8a565b9695505050505050565b611cfc816117f3565b8114611d0757600080fd5b50565b600081359050611d1981611cf3565b92915050565b60008060408385031215611d3657611d35611bbf565b5b6000611d4485828601611d0a565b9250506020611d5585828601611be0565b9150509250929050565b6000604082019050611d746000830185611c8a565b611d816020830184611c7b565b9392505050565b60008060408385031215611d9f57611d9e611bbf565b5b6000611dad85828601611be0565b9250506020611dbe85828601611be0565b9150509250929050565b6000602082019050611ddd6000830184611c22565b92915050565b611dec8161196f565b8114611df757600080fd5b50565b600081359050611e0981611de3565b92915050565b60008060408385031215611e2657611e25611bbf565b5b6000611e3485828601611be0565b9250506020611e4585828601611dfa565b9150509250929050565b600060208284031215611e6557611e64611bbf565b5b6000611e7384828501611d0a565b91505092915050565b600081519050919050565b600082825260208201905092915050565b6000819050602082019050919050565b604082016000820151611ebe6000850182611995565b506020820151611ed1602085018261197c565b50505050565b6000611ee38383611ea8565b60408301905092915050565b6000602082019050919050565b6000611f0782611e7c565b611f118185611e87565b9350611f1c83611e98565b8060005b83811015611f4d578151611f348882611ed7565b9750611f3f83611eef565b925050600181019050611f20565b5085935050505092915050565b60006020820190508181036000830152611f748184611efc565b905092915050565b600080fd5b600080fd5b7f4e487b7100000000000000000000000000000000000000000000000000000000600052604160045260246000fd5b611fbe82611863565b810181811067ffffffffffffffff82111715611fdd57611fdc611f86565b5b80604052505050565b6000611ff0611bb5565b9050611ffc8282611fb5565b919050565b600067ffffffffffffffff82111561201c5761201b611f86565b5b61202582611863565b9050602081019050919050565b82818337600083830152505050565b600061205461204f84612001565b611fe6565b9050828152602081018484840111156120705761206f611f81565b5b61207b848285612032565b509392505050565b600082601f83011261209857612097611f7c565b5b81356120a8848260208601612041565b91505092915050565b600067ffffffffffffffff8211156120cc576120cb611f86565b5b602082029050602081019050919050565b600080fd5b60006120f56120f0846120b1565b611fe6565b90508083825260208201905060208402830185811115612118576121176120dd565b5b835b8181101561215f57803567ffffffffffffffff81111561213d5761213c611f7c565b5b80860161214a8982612083565b8552602085019450505060208101905061211a565b5050509392505050565b600082601f83011261217e5761217d611f7c565b5b813561218e8482602086016120e2565b91505092915050565b600080600080608085870312156121b1576121b0611bbf565b5b600085013567ffffffffffffffff8111156121cf576121ce611bc4565b5b6121db87828801612083565b94505060206121ec87828801611dfa565b93505060406121fd87828801611dfa565b925050606085013567ffffffffffffffff81111561221e5761221d611bc4565b5b61222a87828801612169565b91505092959194509250565b600081519050919050565b600082825260208201905092915050565b6000819050602082019050919050565b600061226e8383611805565b60208301905092915050565b6000602082019050919050565b600061229282612236565b61229c8185612241565b93506122a783612252565b8060005b838110156122d85781516122bf8882612262565b97506122ca8361227a565b9250506001810190506122ab565b5085935050505092915050565b600060208201905081810360008301526122ff8184612287565b905092915050565b6000806040838503121561231e5761231d611bbf565b5b600061232c85828601611be0565b925050602061233d85828601611d0a565b9150509250929050565b60408201600082015161235d6000850182611995565b506020820151612370602085018261197c565b50505050565b600060408201905061238b6000830184612347565b92915050565b600082825260208201905092915050565b60006123ad826119a4565b6123b78185612391565b93506123c2836119c0565b8060005b838110156123f35781516123da88826119d0565b97506123e5836119e8565b9250506001810190506123c6565b5085935050505092915050565b6000602082019050818103600083015261241a81846123a2565b905092915050565b7f4e487b7100000000000000000000000000000000000000000000000000000000600052602260045260246000fd5b6000600282049050600182168061246957607f821691505b6020821081141561247d5761247c612422565b5b50919050565b7f496e76616c696420706f6c6c206e756d62657200000000000000000000000000600082015250565b60006124b9601383611c31565b91506124c482612483565b602082019050919050565b600060208201905081810360008301526124e8816124ac565b9050919050565b7f4e487b7100000000000000000000000000000000000000000000000000000000600052603260045260246000fd5b7f496e76616c6964206f7074696f6e206e756d6265720000000000000000000000600082015250565b6000612554601583611c31565b915061255f8261251e565b602082019050919050565b6000602082019050818103600083015261258381612547565b9050919050565b7f63726561746f722068696d73656c662063616e6e6f7420766f74650000000000600082015250565b60006125c0601b83611c31565b91506125cb8261258a565b602082019050919050565b600060208201905081810360008301526125ef816125b3565b9050919050565b600061ffff82169050919050565b7f4e487b7100000000000000000000000000000000000000000000000000000000600052601160045260246000fd5b600061263e826125f6565b9150612649836125f6565b92508161ffff048311821515161561266457612663612604565b5b828202905092915050565b600061267a8261198b565b91506126858361198b565b9250827fffffffffffffffffffffffffffffffffffffffffffffffffffffffffffffffff038211156126ba576126b9612604565b5b828201905092915050565b7f54696d65206c696d697420657863656564656400000000000000000000000000600082015250565b60006126fb601383611c31565b9150612706826126c5565b602082019050919050565b6000602082019050818103600083015261272a816126ee565b9050919050565b7f416c726561647920766f74656400000000000000000000000000000000000000600082015250565b6000612767600d83611c31565b915061277282612731565b602082019050919050565b600060208201905081810360008301526127968161275a565b9050919050565b60006127a88261198b565b91507fffffffffffffffffffffffffffffffffffffffffffffffffffffffffffffffff8214156127db576127da612604565b5b600182019050919050565b50565b60006127f6600083611c31565b9150612801826127e6565b600082019050919050565b60006020820190508181036000830152612825816127e9565b9050919050565b600060208201905081810360008301526128468184611c42565b905092915050565b7f5175657374696f6e20697320656d707479000000000000000000000000000000600082015250565b6000612884601183611c31565b915061288f8261284e565b602082019050919050565b600060208201905081810360008301526128b381612877565b9050919050565b7f54696d65206c696d69742063616e6e6f74206265206c657373207468616e203160008201527f20686f7572000000000000000000000000000000000000000000000000000000602082015250565b6000612916602583611c31565b9150612921826128ba565b604082019050919050565b6000602082019050818103600083015261294581612909565b9050919050565b7f54696d65206c696d69742063616e6e6f742065786365656420323420686f757260008201527f7300000000000000000000000000000000000000000000000000000000000000602082015250565b60006129a8602183611c31565b91506129b38261294c565b604082019050919050565b600060208201905081810360008301526129d78161299b565b9050919050565b7f4f6e6c79206f6e65206f7074696f6e20676976656e0000000000000000000000600082015250565b6000612a14601583611c31565b9150612a1f826129de565b602082019050919050565b60006020820190508181036000830152612a4381612a07565b9050919050565b6000612a558261198b565b9150612a608361198b565b925082821015612a7357612a72612604565b5b828203905092915050565b6000602082019050612a936000830184611c8a565b92915050565b7f4e6f7420566f7465640000000000000000000000000000000000000000000000600082015250565b6000612acf600983611c31565b9150612ada82612a99565b602082019050919050565b60006020820190508181036000830152612afe81612ac2565b905091905056fea26469706673582212205f5aa6d458a8ada317c7a839ea37a9dbe1acc4d243c9ddc9f6d43a810b48381364736f6c63430008090033",
  "immutableReferences": {},
  "source": "// SPDX-License-Identifier: MIT\r\n\r\npragma solidity ^0.8.0;\r\n\r\ncontract PollApp {\r\n    // poll structure\r\n    struct Poll {\r\n        address creator;\r\n        string question;\r\n        string[] options;\r\n        uint8 numberOfOptions;\r\n        uint8 timeLimit;\r\n        uint256 timeCreated;\r\n        uint256[] votes;\r\n    }\r\n\r\n    // dynamic polls array containing all the polls\r\n    Poll[] public pollsArray;\r\n\r\n    // user vote data structure\r\n    struct Vote {\r\n        uint256 poll;\r\n        uint8 option;\r\n    }\r\n\r\n    // mapping user to votes\r\n    // mappping poll to users\r\n    mapping(address => Vote[]) public userVotes;\r\n    mapping(uint256 => address[]) public pollVotes;\r\n\r\n    // event poll created\r\n    // event user voted\r\n    event PollCreated(address indexed creator, uint256 pollNumber);\r\n    event UserVoted(address indexed user, uint256 pollNumber, uint8 option);\r\n\r\n    // modifier to check if _pollNumber is valid\r\n    modifier pollExists(uint256 _pollNumber) {\r\n        require(_pollNumber < pollsArray.length, \"Invalid poll number\");\r\n        _;\r\n    }\r\n\r\n    // modifier to check if _question, _timeLimit and _options are valid\r\n    modifier pollCheck(\r\n        string memory _question,\r\n        uint8 _timeLimit,\r\n        string[] memory _options\r\n    ) {\r\n        require(\r\n            keccak256(abi.encode(_question)) != keccak256(abi.encode(\"\")),\r\n            \"Question is empty\"\r\n        );\r\n        require(_timeLimit > 0, \"Time limit cannot be less than 1 hour\");\r\n        require(_timeLimit <= 24, \"Time limit cannot exceed 24 hours\");\r\n        require(_options.length != 1, \"Only one option given\");\r\n        _;\r\n    }\r\n\r\n    // modifier to check if _optionNumber and voting time is valid\r\n    modifier voteCheck(uint256 _pollNumber, uint8 _optionNumber) {\r\n        Poll memory poll = pollsArray[_pollNumber];\r\n        require(_optionNumber < poll.numberOfOptions, \"Invalid option number\");\r\n        require(msg.sender != poll.creator, \"creator himself cannot vote\");\r\n        require(\r\n            block.timestamp <= poll.timeCreated + poll.timeLimit * 1 hours,\r\n            \"Time limit exceeded\"\r\n        );\r\n        _;\r\n    }\r\n\r\n    // function createPoll to create new polls and push it into pollsArray\r\n    function createPoll(\r\n        string memory _question,\r\n        uint8 _timeLimit,\r\n        uint8 _numberOfOptions,\r\n        string[] memory _options\r\n    ) public pollCheck(_question, _timeLimit, _options) {\r\n        if (_options.length != _numberOfOptions) {\r\n            _numberOfOptions = uint8(_options.length);\r\n        }\r\n        Poll memory poll;\r\n        poll.question = _question;\r\n        poll.creator = msg.sender;\r\n        poll.timeLimit = _timeLimit;\r\n        poll.numberOfOptions = _numberOfOptions;\r\n        poll.options = _options;\r\n        poll.timeCreated = block.timestamp;\r\n        uint256[] memory tempArray = new uint256[](_numberOfOptions);\r\n        poll.votes = tempArray;\r\n        pollsArray.push(poll);\r\n        emit PollCreated(msg.sender, pollsArray.length - 1);\r\n    }\r\n\r\n    // function vote to allow user to vote in a poll\r\n    function vote(uint256 _pollNumber, uint8 _optionNumber)\r\n        public\r\n        pollExists(_pollNumber)\r\n        voteCheck(_pollNumber, _optionNumber)\r\n    {\r\n        for (uint256 i = 0; i < pollVotes[_pollNumber].length; i++) {\r\n            if (pollVotes[_pollNumber][i] == msg.sender)\r\n                revert(\"Already voted\");\r\n        }\r\n        Poll storage poll = pollsArray[_pollNumber];\r\n        poll.votes[_optionNumber]++;\r\n        userVotes[msg.sender].push(Vote(_pollNumber, _optionNumber));\r\n        pollVotes[_pollNumber].push(msg.sender);\r\n        emit UserVoted(msg.sender, _pollNumber, _optionNumber);\r\n    }\r\n\r\n    // function getAllPolls returns the whole pollsArray\r\n    function getAllPolls() public view returns (Poll[] memory) {\r\n        return pollsArray;\r\n    }\r\n\r\n    // function getVotes returns votes of poll _pollNumber\r\n    function getVotes(uint256 _pollNumber)\r\n        public\r\n        view\r\n        pollExists(_pollNumber)\r\n        returns (uint256[] memory votes)\r\n    {\r\n        votes = pollsArray[_pollNumber].votes;\r\n    }\r\n\r\n    // function getUserVotes returns all votes made by the user\r\n    function getUserVotes(address _userAddress)\r\n        public\r\n        view\r\n        returns (Vote[] memory votes)\r\n    {\r\n        votes = userVotes[_userAddress];\r\n    }\r\n\r\n    // function getPollVotedUsers returns all users who voted in poll _pollnumber\r\n    function getPollVotedUsers(uint256 _pollNumber)\r\n        public\r\n        view\r\n        pollExists(_pollNumber)\r\n        returns (address[] memory users)\r\n    {\r\n        users = pollVotes[_pollNumber];\r\n    }\r\n\r\n    // function getUserPollVote returns the vote choice of the user _userAddress for the poll _pollNumber\r\n    function getUserPollVote(uint256 _pollNumber, address _userAddress)\r\n        public\r\n        view\r\n        pollExists(_pollNumber)\r\n        returns (Vote memory userVote)\r\n    {\r\n        Vote[] memory votes = userVotes[_userAddress];\r\n        bool hasVoted = false;\r\n        for (uint256 i = 0; i < votes.length; i++) {\r\n            if (votes[i].poll == _pollNumber) {\r\n                hasVoted = true;\r\n                userVote = votes[i];\r\n            }\r\n        }\r\n        if (!hasVoted) {\r\n            revert(\"Not Voted\");\r\n        }\r\n    }\r\n}\r\n",
  "sourcePath": "/mnt/d/SolidityProjects/Poll-dapp/contracts/PollApp.sol",
  "compiler": {
    "name": "solc",
    "version": "0.8.9+commit.e5eed63a.Emscripten.clang"
  },
  "schemaVersion": "3.4.3",
  "updatedAt": "2021-11-01T16:45:10.320Z",
  "networkType": "ethereum",
  "devdoc": {
    "kind": "dev",
    "methods": {},
    "version": 1
  },
  "userdoc": {
    "kind": "user",
    "methods": {},
    "version": 1
  }
}