{
  "contractName": "PollApp",
  "abi": [
    {
      "anonymous": false,
      "inputs": [
        {
          "indexed": true,
          "internalType": "address",
          "name": "creator",
          "type": "address"
        },
        {
          "indexed": false,
          "internalType": "uint256",
          "name": "pollNumber",
          "type": "uint256"
        }
      ],
      "name": "PollCreated",
      "type": "event"
    },
    {
      "anonymous": false,
      "inputs": [
        {
          "indexed": true,
          "internalType": "address",
          "name": "user",
          "type": "address"
        },
        {
          "indexed": false,
          "internalType": "uint256",
          "name": "pollNumber",
          "type": "uint256"
        },
        {
          "indexed": false,
          "internalType": "uint8",
          "name": "option",
          "type": "uint8"
        }
      ],
      "name": "UserVoted",
      "type": "event"
    },
    {
      "inputs": [
        {
          "internalType": "uint256",
          "name": "",
          "type": "uint256"
        },
        {
          "internalType": "uint256",
          "name": "",
          "type": "uint256"
        }
      ],
      "name": "pollVotes",
      "outputs": [
        {
          "internalType": "address",
          "name": "",
          "type": "address"
        }
      ],
      "stateMutability": "view",
      "type": "function",
      "constant": true
    },
    {
      "inputs": [
        {
          "internalType": "uint256",
          "name": "",
          "type": "uint256"
        }
      ],
      "name": "pollsArray",
      "outputs": [
        {
          "internalType": "address",
          "name": "creator",
          "type": "address"
        },
        {
          "internalType": "string",
          "name": "question",
          "type": "string"
        },
        {
          "internalType": "uint8",
          "name": "numberOfOptions",
          "type": "uint8"
        },
        {
          "internalType": "uint256",
          "name": "timeCreated",
          "type": "uint256"
        },
        {
          "internalType": "uint256",
          "name": "endTime",
          "type": "uint256"
        },
        {
          "internalType": "uint256",
          "name": "id",
          "type": "uint256"
        }
      ],
      "stateMutability": "view",
      "type": "function",
      "constant": true
    },
    {
      "inputs": [
        {
          "internalType": "address",
          "name": "",
          "type": "address"
        },
        {
          "internalType": "uint256",
          "name": "",
          "type": "uint256"
        }
      ],
      "name": "userPolls",
      "outputs": [
        {
          "internalType": "uint256",
          "name": "",
          "type": "uint256"
        }
      ],
      "stateMutability": "view",
      "type": "function",
      "constant": true
    },
    {
      "inputs": [
        {
          "internalType": "address",
          "name": "",
          "type": "address"
        },
        {
          "internalType": "uint256",
          "name": "",
          "type": "uint256"
        }
      ],
      "name": "userVotes",
      "outputs": [
        {
          "internalType": "uint256",
          "name": "poll",
          "type": "uint256"
        },
        {
          "internalType": "uint8",
          "name": "option",
          "type": "uint8"
        }
      ],
      "stateMutability": "view",
      "type": "function",
      "constant": true
    },
    {
      "inputs": [
        {
          "internalType": "string",
          "name": "_question",
          "type": "string"
        },
        {
          "internalType": "uint8",
          "name": "_endTime",
          "type": "uint8"
        },
        {
          "internalType": "uint8",
          "name": "_numberOfOptions",
          "type": "uint8"
        },
        {
          "internalType": "string[]",
          "name": "_options",
          "type": "string[]"
        }
      ],
      "name": "createPoll",
      "outputs": [],
      "stateMutability": "nonpayable",
      "type": "function"
    },
    {
      "inputs": [
        {
          "internalType": "uint256",
          "name": "_pollNumber",
          "type": "uint256"
        },
        {
          "internalType": "uint8",
          "name": "_optionNumber",
          "type": "uint8"
        }
      ],
      "name": "vote",
      "outputs": [],
      "stateMutability": "nonpayable",
      "type": "function"
    },
    {
      "inputs": [],
      "name": "getAllPolls",
      "outputs": [
        {
          "components": [
            {
              "internalType": "address",
              "name": "creator",
              "type": "address"
            },
            {
              "internalType": "string",
              "name": "question",
              "type": "string"
            },
            {
              "internalType": "string[]",
              "name": "options",
              "type": "string[]"
            },
            {
              "internalType": "uint8",
              "name": "numberOfOptions",
              "type": "uint8"
            },
            {
              "internalType": "uint256",
              "name": "timeCreated",
              "type": "uint256"
            },
            {
              "internalType": "uint256",
              "name": "endTime",
              "type": "uint256"
            },
            {
              "internalType": "uint256[]",
              "name": "votes",
              "type": "uint256[]"
            },
            {
              "internalType": "uint256",
              "name": "id",
              "type": "uint256"
            }
          ],
          "internalType": "struct PollApp.Poll[]",
          "name": "",
          "type": "tuple[]"
        }
      ],
      "stateMutability": "view",
      "type": "function",
      "constant": true
    },
    {
      "inputs": [
        {
          "internalType": "uint256",
          "name": "_pollNumber",
          "type": "uint256"
        }
      ],
      "name": "getVotes",
      "outputs": [
        {
          "internalType": "uint256[]",
          "name": "votes",
          "type": "uint256[]"
        }
      ],
      "stateMutability": "view",
      "type": "function",
      "constant": true
    },
    {
      "inputs": [
        {
          "internalType": "address",
          "name": "_userAddress",
          "type": "address"
        }
      ],
      "name": "getUserVotes",
      "outputs": [
        {
          "components": [
            {
              "internalType": "uint256",
              "name": "poll",
              "type": "uint256"
            },
            {
              "internalType": "uint8",
              "name": "option",
              "type": "uint8"
            }
          ],
          "internalType": "struct PollApp.Vote[]",
          "name": "votes",
          "type": "tuple[]"
        }
      ],
      "stateMutability": "view",
      "type": "function",
      "constant": true
    },
    {
      "inputs": [
        {
          "internalType": "uint256",
          "name": "_pollNumber",
          "type": "uint256"
        }
      ],
      "name": "getPollVotedUsers",
      "outputs": [
        {
          "internalType": "address[]",
          "name": "users",
          "type": "address[]"
        }
      ],
      "stateMutability": "view",
      "type": "function",
      "constant": true
    },
    {
      "inputs": [
        {
          "internalType": "uint256",
          "name": "_pollNumber",
          "type": "uint256"
        },
        {
          "internalType": "address",
          "name": "_userAddress",
          "type": "address"
        }
      ],
      "name": "getUserPollVote",
      "outputs": [
        {
          "components": [
            {
              "internalType": "uint256",
              "name": "poll",
              "type": "uint256"
            },
            {
              "internalType": "uint8",
              "name": "option",
              "type": "uint8"
            }
          ],
          "internalType": "struct PollApp.Vote",
          "name": "userVote",
          "type": "tuple"
        }
      ],
      "stateMutability": "view",
      "type": "function",
      "constant": true
    },
    {
      "inputs": [
        {
          "internalType": "address",
          "name": "_userAddress",
          "type": "address"
        }
      ],
      "name": "getUserPolls",
      "outputs": [
        {
          "internalType": "uint256[]",
          "name": "pollsId",
          "type": "uint256[]"
        }
      ],
      "stateMutability": "view",
      "type": "function",
      "constant": true
    }
  ],
  "bytecode": "0x608060405234801561001057600080fd5b50612cf7806100206000396000f3fe608060405234801561001057600080fd5b50600436106100b45760003560e01c8063943e821611610071578063943e8216146101cd578063950c7822146101e9578063a38ace3c14610219578063a566258314610235578063fede8a7914610265578063ff98109914610295576100b4565b806307f790e7146100b957806332b633fa146100e95780633c9066af146101075780634534b99e146101375780638b3511f71461016c578063934df0e11461019d575b600080fd5b6100d360048036038101906100ce91906119a3565b6102c5565b6040516100e09190611a98565b60405180910390f35b6100f161035c565b6040516100fe9190611e2f565b60405180910390f35b610121600480360381019061011c9190611e7d565b610610565b60405161012e9190611ecc565b60405180910390f35b610151600480360381019061014c9190611ee7565b610641565b60405161016396959493929190611f7c565b60405180910390f35b61018660048036038101906101819190611e7d565b610742565b604051610194929190611fe4565b60405180910390f35b6101b760048036038101906101b2919061200d565b610790565b6040516101c4919061204d565b60405180910390f35b6101e760048036038101906101e29190612094565b6107de565b005b61020360048036038101906101fe91906119a3565b610e7e565b60405161021091906121b2565b60405180910390f35b610233600480360381019061022e91906123ef565b610f43565b005b61024f600480360381019061024a9190611ee7565b611390565b60405161025c919061253d565b60405180910390f35b61027f600480360381019061027a919061255f565b61147a565b60405161028c91906125ce565b60405180910390f35b6102af60048036038101906102aa9190611ee7565b61163c565b6040516102bc9190611a98565b60405180910390f35b6060600360008373ffffffffffffffffffffffffffffffffffffffff1673ffffffffffffffffffffffffffffffffffffffff16815260200190815260200160002080548060200260200160405190810160405280929190818152602001828054801561035057602002820191906000526020600020905b81548152602001906001019080831161033c575b50505050509050919050565b60606000805480602002602001604051908101604052809291908181526020016000905b828210156106075783829060005260206000209060080201604051806101000160405290816000820160009054906101000a900473ffffffffffffffffffffffffffffffffffffffff1673ffffffffffffffffffffffffffffffffffffffff1673ffffffffffffffffffffffffffffffffffffffff16815260200160018201805461040a90612618565b80601f016020809104026020016040519081016040528092919081815260200182805461043690612618565b80156104835780601f1061045857610100808354040283529160200191610483565b820191906000526020600020905b81548152906001019060200180831161046657829003601f168201915b5050505050815260200160028201805480602002602001604051908101604052809291908181526020016000905b8282101561055d5783829060005260206000200180546104d090612618565b80601f01602080910402602001604051908101604052809291908181526020018280546104fc90612618565b80156105495780601f1061051e57610100808354040283529160200191610549565b820191906000526020600020905b81548152906001019060200180831161052c57829003601f168201915b5050505050815260200190600101906104b1565b5050505081526020016003820160009054906101000a900460ff1660ff1660ff1681526020016004820154815260200160058201548152602001600682018054806020026020016040519081016040528092919081815260200182805480156105e557602002820191906000526020600020905b8154815260200190600101908083116105d1575b5050505050815260200160078201548152505081526020019060010190610380565b50505050905090565b6003602052816000526040600020818154811061062c57600080fd5b90600052602060002001600091509150505481565b6000818154811061065157600080fd5b90600052602060002090600802016000915090508060000160009054906101000a900473ffffffffffffffffffffffffffffffffffffffff169080600101805461069a90612618565b80601f01602080910402602001604051908101604052809291908181526020018280546106c690612618565b80156107135780601f106106e857610100808354040283529160200191610713565b820191906000526020600020905b8154815290600101906020018083116106f657829003601f168201915b5050505050908060030160009054906101000a900460ff16908060040154908060050154908060070154905086565b6001602052816000526040600020818154811061075e57600080fd5b9060005260206000209060020201600091509150508060000154908060010160009054906101000a900460ff16905082565b600260205281600052604060002081815481106107ac57600080fd5b906000526020600020016000915091509054906101000a900473ffffffffffffffffffffffffffffffffffffffff1681565b816000805490508110610826576040517f08c379a000000000000000000000000000000000000000000000000000000000815260040161081d90612696565b60405180910390fd5b8282600080838154811061083d5761083c6126b6565b5b9060005260206000209060080201604051806101000160405290816000820160009054906101000a900473ffffffffffffffffffffffffffffffffffffffff1673ffffffffffffffffffffffffffffffffffffffff1673ffffffffffffffffffffffffffffffffffffffff1681526020016001820180546108bd90612618565b80601f01602080910402602001604051908101604052809291908181526020018280546108e990612618565b80156109365780601f1061090b57610100808354040283529160200191610936565b820191906000526020600020905b81548152906001019060200180831161091957829003601f168201915b5050505050815260200160028201805480602002602001604051908101604052809291908181526020016000905b82821015610a1057838290600052602060002001805461098390612618565b80601f01602080910402602001604051908101604052809291908181526020018280546109af90612618565b80156109fc5780601f106109d1576101008083540402835291602001916109fc565b820191906000526020600020905b8154815290600101906020018083116109df57829003601f168201915b505050505081526020019060010190610964565b5050505081526020016003820160009054906101000a900460ff1660ff1660ff168152602001600482015481526020016005820154815260200160068201805480602002602001604051908101604052809291908181526020018280548015610a9857602002820191906000526020600020905b815481526020019060010190808311610a84575b505050505081526020016007820154815250509050806060015160ff168260ff1610610af9576040517f08c379a0000000000000000000000000000000000000000000000000000000008152600401610af090612731565b60405180910390fd5b806000015173ffffffffffffffffffffffffffffffffffffffff163373ffffffffffffffffffffffffffffffffffffffff161415610b6c576040517f08c379a0000000000000000000000000000000000000000000000000000000008152600401610b639061279d565b60405180910390fd5b8060a00151421115610bb3576040517f08c379a0000000000000000000000000000000000000000000000000000000008152600401610baa90612809565b60405180910390fd5b60005b6002600088815260200190815260200160002080549050811015610ca5573373ffffffffffffffffffffffffffffffffffffffff16600260008981526020019081526020016000208281548110610c1057610c0f6126b6565b5b9060005260206000200160009054906101000a900473ffffffffffffffffffffffffffffffffffffffff1673ffffffffffffffffffffffffffffffffffffffff161415610c92576040517f08c379a0000000000000000000000000000000000000000000000000000000008152600401610c8990612875565b60405180910390fd5b8080610c9d906128c4565b915050610bb6565b506000808781548110610cbb57610cba6126b6565b5b90600052602060002090600802019050806006018660ff1681548110610ce457610ce36126b6565b5b906000526020600020016000815480929190610cff906128c4565b9190505550600160003373ffffffffffffffffffffffffffffffffffffffff1673ffffffffffffffffffffffffffffffffffffffff16815260200190815260200160002060405180604001604052808981526020018860ff1681525090806001815401808255809150506001900390600052602060002090600202016000909190919091506000820151816000015560208201518160010160006101000a81548160ff021916908360ff160217905550505060026000888152602001908152602001600020339080600181540180825580915050600190039060005260206000200160009091909190916101000a81548173ffffffffffffffffffffffffffffffffffffffff021916908373ffffffffffffffffffffffffffffffffffffffff1602179055503373ffffffffffffffffffffffffffffffffffffffff167f98855b7ed43590b2e2c6cd6ddab25b57bdd2d003771000174e0639eb22615bfa8888604051610e6d929190611fe4565b60405180910390a250505050505050565b6060600160008373ffffffffffffffffffffffffffffffffffffffff1673ffffffffffffffffffffffffffffffffffffffff168152602001908152602001600020805480602002602001604051908101604052809291908181526020016000905b82821015610f385783829060005260206000209060020201604051806040016040529081600082015481526020016001820160009054906101000a900460ff1660ff1660ff168152505081526020019060010190610edf565b505050509050919050565b838382604051602001610f5590612933565b6040516020818303038152906040528051906020012083604051602001610f7c9190612953565b604051602081830303815290604052805190602001201415610fd3576040517f08c379a0000000000000000000000000000000000000000000000000000000008152600401610fca906129c1565b60405180910390fd5b60008260ff1611611019576040517f08c379a000000000000000000000000000000000000000000000000000000000815260040161101090612a53565b60405180910390fd5b60188260ff161115611060576040517f08c379a000000000000000000000000000000000000000000000000000000000815260040161105790612ae5565b60405180910390fd5b6001815114156110a5576040517f08c379a000000000000000000000000000000000000000000000000000000000815260040161109c90612b51565b60405180910390fd5b8460ff168451146110b557835194505b6110bd611702565b87816020018190525033816000019073ffffffffffffffffffffffffffffffffffffffff16908173ffffffffffffffffffffffffffffffffffffffff1681525050610e108760ff1661110f9190612b71565b4261111a9190612bcb565b8160a001818152505085816060019060ff16908160ff16815250508481604001819052504281608001818152505060008660ff1667ffffffffffffffff811115611167576111666121de565b5b6040519080825280602002602001820160405280156111955781602001602082028036833780820191505090505b509050808260c001819052506000805490508260e0018181525050600360003373ffffffffffffffffffffffffffffffffffffffff1673ffffffffffffffffffffffffffffffffffffffff1681526020019081526020016000206000805490509080600181540180825580915050600190039060005260206000200160009091909190915055600082908060018154018082558091505060019003906000526020600020906008020160009091909190915060008201518160000160006101000a81548173ffffffffffffffffffffffffffffffffffffffff021916908373ffffffffffffffffffffffffffffffffffffffff16021790555060208201518160010190805190602001906112aa929190611760565b5060408201518160020190805190602001906112c79291906117e6565b5060608201518160030160006101000a81548160ff021916908360ff1602179055506080820151816004015560a0820151816005015560c0820151816006019080519060200190611319929190611846565b5060e0820151816007015550503373ffffffffffffffffffffffffffffffffffffffff167f253458ed40d765e300ef79d87f8b5a901191fbfc27d54b1ea052a6752908953c60016000805490506113709190612c21565b60405161137d9190611ecc565b60405180910390a2505050505050505050565b60608160008054905081106113da576040517f08c379a00000000000000000000000000000000000000000000000000000000081526004016113d190612696565b60405180910390fd5b6002600084815260200190815260200160002080548060200260200160405190810160405280929190818152602001828054801561146d57602002820191906000526020600020905b8160009054906101000a900473ffffffffffffffffffffffffffffffffffffffff1673ffffffffffffffffffffffffffffffffffffffff1681526020019060010190808311611423575b5050505050915050919050565b611482611893565b8260008054905081106114ca576040517f08c379a00000000000000000000000000000000000000000000000000000000081526004016114c190612696565b60405180910390fd5b6000600160008573ffffffffffffffffffffffffffffffffffffffff1673ffffffffffffffffffffffffffffffffffffffff168152602001908152602001600020805480602002602001604051908101604052809291908181526020016000905b828210156115845783829060005260206000209060020201604051806040016040529081600082015481526020016001820160009054906101000a900460ff1660ff1660ff16815250508152602001906001019061152b565b5050505090506000805b82518110156115f257868382815181106115ab576115aa6126b6565b5b60200260200101516000015114156115df57600191508281815181106115d4576115d36126b6565b5b602002602001015194505b80806115ea906128c4565b91505061158e565b5080611633576040517f08c379a000000000000000000000000000000000000000000000000000000000815260040161162a90612ca1565b60405180910390fd5b50505092915050565b6060816000805490508110611686576040517f08c379a000000000000000000000000000000000000000000000000000000000815260040161167d90612696565b60405180910390fd5b6000838154811061169a576116996126b6565b5b90600052602060002090600802016006018054806020026020016040519081016040528092919081815260200182805480156116f557602002820191906000526020600020905b8154815260200190600101908083116116e1575b5050505050915050919050565b604051806101000160405280600073ffffffffffffffffffffffffffffffffffffffff1681526020016060815260200160608152602001600060ff168152602001600081526020016000815260200160608152602001600081525090565b82805461176c90612618565b90600052602060002090601f01602090048101928261178e57600085556117d5565b82601f106117a757805160ff19168380011785556117d5565b828001600101855582156117d5579182015b828111156117d45782518255916020019190600101906117b9565b5b5090506117e291906118b0565b5090565b828054828255906000526020600020908101928215611835579160200282015b82811115611834578251829080519060200190611824929190611760565b5091602001919060010190611806565b5b50905061184291906118cd565b5090565b828054828255906000526020600020908101928215611882579160200282015b82811115611881578251825591602001919060010190611866565b5b50905061188f91906118b0565b5090565b604051806040016040528060008152602001600060ff1681525090565b5b808211156118c95760008160009055506001016118b1565b5090565b5b808211156118ed57600081816118e491906118f1565b506001016118ce565b5090565b5080546118fd90612618565b6000825580601f1061190f575061192e565b601f01602090049060005260206000209081019061192d91906118b0565b5b50565b6000604051905090565b600080fd5b600080fd5b600073ffffffffffffffffffffffffffffffffffffffff82169050919050565b600061197082611945565b9050919050565b61198081611965565b811461198b57600080fd5b50565b60008135905061199d81611977565b92915050565b6000602082840312156119b9576119b861193b565b5b60006119c78482850161198e565b91505092915050565b600081519050919050565b600082825260208201905092915050565b6000819050602082019050919050565b6000819050919050565b611a0f816119fc565b82525050565b6000611a218383611a06565b60208301905092915050565b6000602082019050919050565b6000611a45826119d0565b611a4f81856119db565b9350611a5a836119ec565b8060005b83811015611a8b578151611a728882611a15565b9750611a7d83611a2d565b925050600181019050611a5e565b5085935050505092915050565b60006020820190508181036000830152611ab28184611a3a565b905092915050565b600081519050919050565b600082825260208201905092915050565b6000819050602082019050919050565b611aef81611965565b82525050565b600081519050919050565b600082825260208201905092915050565b60005b83811015611b2f578082015181840152602081019050611b14565b83811115611b3e576000848401525b50505050565b6000601f19601f8301169050919050565b6000611b6082611af5565b611b6a8185611b00565b9350611b7a818560208601611b11565b611b8381611b44565b840191505092915050565b600081519050919050565b600082825260208201905092915050565b6000819050602082019050919050565b6000611bc68383611b55565b905092915050565b6000602082019050919050565b6000611be682611b8e565b611bf08185611b99565b935083602082028501611c0285611baa565b8060005b85811015611c3e5784840389528151611c1f8582611bba565b9450611c2a83611bce565b925060208a01995050600181019050611c06565b50829750879550505050505092915050565b600060ff82169050919050565b611c6681611c50565b82525050565b600082825260208201905092915050565b6000611c88826119d0565b611c928185611c6c565b9350611c9d836119ec565b8060005b83811015611cce578151611cb58882611a15565b9750611cc083611a2d565b925050600181019050611ca1565b5085935050505092915050565b600061010083016000830151611cf46000860182611ae6565b5060208301518482036020860152611d0c8282611b55565b91505060408301518482036040860152611d268282611bdb565b9150506060830151611d3b6060860182611c5d565b506080830151611d4e6080860182611a06565b5060a0830151611d6160a0860182611a06565b5060c083015184820360c0860152611d798282611c7d565b91505060e0830151611d8e60e0860182611a06565b508091505092915050565b6000611da58383611cdb565b905092915050565b6000602082019050919050565b6000611dc582611aba565b611dcf8185611ac5565b935083602082028501611de185611ad6565b8060005b85811015611e1d5784840389528151611dfe8582611d99565b9450611e0983611dad565b925060208a01995050600181019050611de5565b50829750879550505050505092915050565b60006020820190508181036000830152611e498184611dba565b905092915050565b611e5a816119fc565b8114611e6557600080fd5b50565b600081359050611e7781611e51565b92915050565b60008060408385031215611e9457611e9361193b565b5b6000611ea28582860161198e565b9250506020611eb385828601611e68565b9150509250929050565b611ec6816119fc565b82525050565b6000602082019050611ee16000830184611ebd565b92915050565b600060208284031215611efd57611efc61193b565b5b6000611f0b84828501611e68565b91505092915050565b611f1d81611965565b82525050565b600082825260208201905092915050565b6000611f3f82611af5565b611f498185611f23565b9350611f59818560208601611b11565b611f6281611b44565b840191505092915050565b611f7681611c50565b82525050565b600060c082019050611f916000830189611f14565b8181036020830152611fa38188611f34565b9050611fb26040830187611f6d565b611fbf6060830186611ebd565b611fcc6080830185611ebd565b611fd960a0830184611ebd565b979650505050505050565b6000604082019050611ff96000830185611ebd565b6120066020830184611f6d565b9392505050565b600080604083850312156120245761202361193b565b5b600061203285828601611e68565b925050602061204385828601611e68565b9150509250929050565b60006020820190506120626000830184611f14565b92915050565b61207181611c50565b811461207c57600080fd5b50565b60008135905061208e81612068565b92915050565b600080604083850312156120ab576120aa61193b565b5b60006120b985828601611e68565b92505060206120ca8582860161207f565b9150509250929050565b600081519050919050565b600082825260208201905092915050565b6000819050602082019050919050565b6040820160008201516121166000850182611a06565b5060208201516121296020850182611c5d565b50505050565b600061213b8383612100565b60408301905092915050565b6000602082019050919050565b600061215f826120d4565b61216981856120df565b9350612174836120f0565b8060005b838110156121a557815161218c888261212f565b975061219783612147565b925050600181019050612178565b5085935050505092915050565b600060208201905081810360008301526121cc8184612154565b905092915050565b600080fd5b600080fd5b7f4e487b7100000000000000000000000000000000000000000000000000000000600052604160045260246000fd5b61221682611b44565b810181811067ffffffffffffffff82111715612235576122346121de565b5b80604052505050565b6000612248611931565b9050612254828261220d565b919050565b600067ffffffffffffffff821115612274576122736121de565b5b61227d82611b44565b9050602081019050919050565b82818337600083830152505050565b60006122ac6122a784612259565b61223e565b9050828152602081018484840111156122c8576122c76121d9565b5b6122d384828561228a565b509392505050565b600082601f8301126122f0576122ef6121d4565b5b8135612300848260208601612299565b91505092915050565b600067ffffffffffffffff821115612324576123236121de565b5b602082029050602081019050919050565b600080fd5b600061234d61234884612309565b61223e565b905080838252602082019050602084028301858111156123705761236f612335565b5b835b818110156123b757803567ffffffffffffffff811115612395576123946121d4565b5b8086016123a289826122db565b85526020850194505050602081019050612372565b5050509392505050565b600082601f8301126123d6576123d56121d4565b5b81356123e684826020860161233a565b91505092915050565b600080600080608085870312156124095761240861193b565b5b600085013567ffffffffffffffff81111561242757612426611940565b5b612433878288016122db565b94505060206124448782880161207f565b93505060406124558782880161207f565b925050606085013567ffffffffffffffff81111561247657612475611940565b5b612482878288016123c1565b91505092959194509250565b600081519050919050565b600082825260208201905092915050565b6000819050602082019050919050565b60006124c68383611ae6565b60208301905092915050565b6000602082019050919050565b60006124ea8261248e565b6124f48185612499565b93506124ff836124aa565b8060005b8381101561253057815161251788826124ba565b9750612522836124d2565b925050600181019050612503565b5085935050505092915050565b6000602082019050818103600083015261255781846124df565b905092915050565b600080604083850312156125765761257561193b565b5b600061258485828601611e68565b92505060206125958582860161198e565b9150509250929050565b6040820160008201516125b56000850182611a06565b5060208201516125c86020850182611c5d565b50505050565b60006040820190506125e3600083018461259f565b92915050565b7f4e487b7100000000000000000000000000000000000000000000000000000000600052602260045260246000fd5b6000600282049050600182168061263057607f821691505b60208210811415612644576126436125e9565b5b50919050565b7f496e76616c696420706f6c6c206e756d62657200000000000000000000000000600082015250565b6000612680601383611f23565b915061268b8261264a565b602082019050919050565b600060208201905081810360008301526126af81612673565b9050919050565b7f4e487b7100000000000000000000000000000000000000000000000000000000600052603260045260246000fd5b7f496e76616c6964206f7074696f6e206e756d6265720000000000000000000000600082015250565b600061271b601583611f23565b9150612726826126e5565b602082019050919050565b6000602082019050818103600083015261274a8161270e565b9050919050565b7f63726561746f722068696d73656c662063616e6e6f7420766f74650000000000600082015250565b6000612787601b83611f23565b915061279282612751565b602082019050919050565b600060208201905081810360008301526127b68161277a565b9050919050565b7f54696d65206c696d697420657863656564656400000000000000000000000000600082015250565b60006127f3601383611f23565b91506127fe826127bd565b602082019050919050565b60006020820190508181036000830152612822816127e6565b9050919050565b7f416c726561647920766f74656400000000000000000000000000000000000000600082015250565b600061285f600d83611f23565b915061286a82612829565b602082019050919050565b6000602082019050818103600083015261288e81612852565b9050919050565b7f4e487b7100000000000000000000000000000000000000000000000000000000600052601160045260246000fd5b60006128cf826119fc565b91507fffffffffffffffffffffffffffffffffffffffffffffffffffffffffffffffff82141561290257612901612895565b5b600182019050919050565b50565b600061291d600083611f23565b91506129288261290d565b600082019050919050565b6000602082019050818103600083015261294c81612910565b9050919050565b6000602082019050818103600083015261296d8184611f34565b905092915050565b7f5175657374696f6e20697320656d707479000000000000000000000000000000600082015250565b60006129ab601183611f23565b91506129b682612975565b602082019050919050565b600060208201905081810360008301526129da8161299e565b9050919050565b7f54696d65206c696d69742063616e6e6f74206265206c657373207468616e203160008201527f20686f7572000000000000000000000000000000000000000000000000000000602082015250565b6000612a3d602583611f23565b9150612a48826129e1565b604082019050919050565b60006020820190508181036000830152612a6c81612a30565b9050919050565b7f54696d65206c696d69742063616e6e6f742065786365656420323420686f757260008201527f7300000000000000000000000000000000000000000000000000000000000000602082015250565b6000612acf602183611f23565b9150612ada82612a73565b604082019050919050565b60006020820190508181036000830152612afe81612ac2565b9050919050565b7f4f6e6c79206f6e65206f7074696f6e20676976656e0000000000000000000000600082015250565b6000612b3b601583611f23565b9150612b4682612b05565b602082019050919050565b60006020820190508181036000830152612b6a81612b2e565b9050919050565b6000612b7c826119fc565b9150612b87836119fc565b9250817fffffffffffffffffffffffffffffffffffffffffffffffffffffffffffffffff0483118215151615612bc057612bbf612895565b5b828202905092915050565b6000612bd6826119fc565b9150612be1836119fc565b9250827fffffffffffffffffffffffffffffffffffffffffffffffffffffffffffffffff03821115612c1657612c15612895565b5b828201905092915050565b6000612c2c826119fc565b9150612c37836119fc565b925082821015612c4a57612c49612895565b5b828203905092915050565b7f4e6f7420566f7465640000000000000000000000000000000000000000000000600082015250565b6000612c8b600983611f23565b9150612c9682612c55565b602082019050919050565b60006020820190508181036000830152612cba81612c7e565b905091905056fea26469706673582212208daa0aba9fe24fdff0f07a574f6e3e286a011dca43bdbfd44cd46ed1acad09a864736f6c63430008090033",
  "immutableReferences": {},
  "source": "// SPDX-License-Identifier: MIT\r\n\r\npragma solidity ^0.8.0;\r\n\r\ncontract PollApp {\r\n    // poll structure\r\n    struct Poll {\r\n        address creator;\r\n        string question;\r\n        string[] options;\r\n        uint8 numberOfOptions;\r\n        uint256 timeCreated;\r\n        uint256 endTime;\r\n        uint256[] votes;\r\n        uint256 id;\r\n    }\r\n\r\n    // dynamic polls array containing all the polls\r\n    Poll[] public pollsArray;\r\n\r\n    // user vote data structure\r\n    struct Vote {\r\n        uint256 poll;\r\n        uint8 option;\r\n    }\r\n\r\n    // mapping user to votes\r\n    // mappping poll to users\r\n    // mapping creators to pollId\r\n    mapping(address => Vote[]) public userVotes;\r\n    mapping(uint256 => address[]) public pollVotes;\r\n    mapping(address => uint256[]) public userPolls;\r\n\r\n    // event poll created\r\n    // event user voted\r\n    event PollCreated(address indexed creator, uint256 pollNumber);\r\n    event UserVoted(address indexed user, uint256 pollNumber, uint8 option);\r\n\r\n    // modifier to check if _pollNumber is valid\r\n    modifier pollExists(uint256 _pollNumber) {\r\n        require(_pollNumber < pollsArray.length, \"Invalid poll number\");\r\n        _;\r\n    }\r\n\r\n    // modifier to check if _question, _endTime and _options are valid\r\n    modifier pollCheck(\r\n        string memory _question,\r\n        uint8 _endTime,\r\n        string[] memory _options\r\n    ) {\r\n        require(\r\n            keccak256(abi.encode(_question)) != keccak256(abi.encode(\"\")),\r\n            \"Question is empty\"\r\n        );\r\n        require(_endTime > 0, \"Time limit cannot be less than 1 hour\");\r\n        require(_endTime <= 24, \"Time limit cannot exceed 24 hours\");\r\n        require(_options.length != 1, \"Only one option given\");\r\n        _;\r\n    }\r\n\r\n    // modifier to check if _optionNumber and voting time is valid\r\n    modifier voteCheck(uint256 _pollNumber, uint8 _optionNumber) {\r\n        Poll memory poll = pollsArray[_pollNumber];\r\n        require(_optionNumber < poll.numberOfOptions, \"Invalid option number\");\r\n        require(msg.sender != poll.creator, \"creator himself cannot vote\");\r\n        require(block.timestamp <= poll.endTime, \"Time limit exceeded\");\r\n        _;\r\n    }\r\n\r\n    // function createPoll to create new polls and push it into pollsArray\r\n    function createPoll(\r\n        string memory _question,\r\n        uint8 _endTime,\r\n        uint8 _numberOfOptions,\r\n        string[] memory _options\r\n    ) public pollCheck(_question, _endTime, _options) {\r\n        if (_options.length != _numberOfOptions) {\r\n            _numberOfOptions = uint8(_options.length);\r\n        }\r\n        Poll memory poll;\r\n        poll.question = _question;\r\n        poll.creator = msg.sender;\r\n        poll.endTime = block.timestamp + uint256(_endTime) * 3600;\r\n        poll.numberOfOptions = _numberOfOptions;\r\n        poll.options = _options;\r\n        poll.timeCreated = block.timestamp;\r\n        uint256[] memory tempArray = new uint256[](_numberOfOptions);\r\n        poll.votes = tempArray;\r\n        poll.id = pollsArray.length;\r\n        userPolls[msg.sender].push(pollsArray.length);\r\n        pollsArray.push(poll);\r\n        emit PollCreated(msg.sender, pollsArray.length - 1);\r\n    }\r\n\r\n    // function vote to allow user to vote in a poll\r\n    function vote(uint256 _pollNumber, uint8 _optionNumber)\r\n        public\r\n        pollExists(_pollNumber)\r\n        voteCheck(_pollNumber, _optionNumber)\r\n    {\r\n        for (uint256 i = 0; i < pollVotes[_pollNumber].length; i++) {\r\n            if (pollVotes[_pollNumber][i] == msg.sender)\r\n                revert(\"Already voted\");\r\n        }\r\n        Poll storage poll = pollsArray[_pollNumber];\r\n        poll.votes[_optionNumber]++;\r\n        userVotes[msg.sender].push(Vote(_pollNumber, _optionNumber));\r\n        pollVotes[_pollNumber].push(msg.sender);\r\n        emit UserVoted(msg.sender, _pollNumber, _optionNumber);\r\n    }\r\n\r\n    // function getAllPolls returns the whole pollsArray\r\n    function getAllPolls() public view returns (Poll[] memory) {\r\n        return pollsArray;\r\n    }\r\n\r\n    // function getVotes returns votes of poll _pollNumber\r\n    function getVotes(uint256 _pollNumber)\r\n        public\r\n        view\r\n        pollExists(_pollNumber)\r\n        returns (uint256[] memory votes)\r\n    {\r\n        votes = pollsArray[_pollNumber].votes;\r\n    }\r\n\r\n    // function getUserVotes returns all votes made by the user\r\n    function getUserVotes(address _userAddress)\r\n        public\r\n        view\r\n        returns (Vote[] memory votes)\r\n    {\r\n        votes = userVotes[_userAddress];\r\n    }\r\n\r\n    // function getPollVotedUsers returns all users who voted in poll _pollnumber\r\n    function getPollVotedUsers(uint256 _pollNumber)\r\n        public\r\n        view\r\n        pollExists(_pollNumber)\r\n        returns (address[] memory users)\r\n    {\r\n        users = pollVotes[_pollNumber];\r\n    }\r\n\r\n    // function getUserPollVote returns the vote choice of the user _userAddress for the poll _pollNumber\r\n    function getUserPollVote(uint256 _pollNumber, address _userAddress)\r\n        public\r\n        view\r\n        pollExists(_pollNumber)\r\n        returns (Vote memory userVote)\r\n    {\r\n        Vote[] memory votes = userVotes[_userAddress];\r\n        bool hasVoted = false;\r\n        for (uint256 i = 0; i < votes.length; i++) {\r\n            if (votes[i].poll == _pollNumber) {\r\n                hasVoted = true;\r\n                userVote = votes[i];\r\n            }\r\n        }\r\n        if (!hasVoted) {\r\n            revert(\"Not Voted\");\r\n        }\r\n    }\r\n\r\n    // function getUserPolls returns an array of poll ids of the _userAddress\r\n    function getUserPolls(address _userAddress)\r\n        public\r\n        view\r\n        returns (uint256[] memory pollsId)\r\n    {\r\n        pollsId = userPolls[_userAddress];\r\n    }\r\n}\r\n",
  "sourcePath": "/mnt/d/SolidityProjects/Poll-dapp/contracts/PollApp.sol",
  "compiler": {
    "name": "solc",
    "version": "0.8.9+commit.e5eed63a.Emscripten.clang"
  },
  "schemaVersion": "3.4.3",
  "updatedAt": "2021-11-04T18:15:54.708Z",
  "networkType": "ethereum",
  "devdoc": {
    "kind": "dev",
    "methods": {},
    "version": 1
  },
  "userdoc": {
    "kind": "user",
    "methods": {},
    "version": 1
  }
}