{
  "contractName": "PollApp",
  "abi": [
    {
      "anonymous": false,
      "inputs": [
        {
          "indexed": true,
          "internalType": "address",
          "name": "creator",
          "type": "address"
        },
        {
          "indexed": false,
          "internalType": "uint256",
          "name": "pollNumber",
          "type": "uint256"
        }
      ],
      "name": "PollCreated",
      "type": "event"
    },
    {
      "anonymous": false,
      "inputs": [
        {
          "indexed": true,
          "internalType": "address",
          "name": "user",
          "type": "address"
        },
        {
          "indexed": false,
          "internalType": "uint256",
          "name": "pollNumber",
          "type": "uint256"
        },
        {
          "indexed": false,
          "internalType": "uint8",
          "name": "option",
          "type": "uint8"
        }
      ],
      "name": "UserVoted",
      "type": "event"
    },
    {
      "inputs": [
        {
          "internalType": "uint256",
          "name": "",
          "type": "uint256"
        },
        {
          "internalType": "uint256",
          "name": "",
          "type": "uint256"
        }
      ],
      "name": "pollVotes",
      "outputs": [
        {
          "internalType": "address",
          "name": "",
          "type": "address"
        }
      ],
      "stateMutability": "view",
      "type": "function"
    },
    {
      "inputs": [
        {
          "internalType": "uint256",
          "name": "",
          "type": "uint256"
        }
      ],
      "name": "pollsArray",
      "outputs": [
        {
          "internalType": "address",
          "name": "creator",
          "type": "address"
        },
        {
          "internalType": "string",
          "name": "question",
          "type": "string"
        },
        {
          "internalType": "uint8",
          "name": "numberOfOptions",
          "type": "uint8"
        },
        {
          "internalType": "uint8",
          "name": "timeLimit",
          "type": "uint8"
        },
        {
          "internalType": "uint256",
          "name": "timeCreated",
          "type": "uint256"
        }
      ],
      "stateMutability": "view",
      "type": "function"
    },
    {
      "inputs": [
        {
          "internalType": "address",
          "name": "",
          "type": "address"
        },
        {
          "internalType": "uint256",
          "name": "",
          "type": "uint256"
        }
      ],
      "name": "userVotes",
      "outputs": [
        {
          "internalType": "uint256",
          "name": "poll",
          "type": "uint256"
        },
        {
          "internalType": "uint8",
          "name": "option",
          "type": "uint8"
        }
      ],
      "stateMutability": "view",
      "type": "function"
    },
    {
      "inputs": [
        {
          "internalType": "string",
          "name": "_question",
          "type": "string"
        },
        {
          "internalType": "uint8",
          "name": "_timeLimit",
          "type": "uint8"
        },
        {
          "internalType": "uint8",
          "name": "_numberOfOptions",
          "type": "uint8"
        },
        {
          "internalType": "string[]",
          "name": "_options",
          "type": "string[]"
        }
      ],
      "name": "createPoll",
      "outputs": [],
      "stateMutability": "nonpayable",
      "type": "function"
    },
    {
      "inputs": [
        {
          "internalType": "uint256",
          "name": "_pollNumber",
          "type": "uint256"
        },
        {
          "internalType": "uint8",
          "name": "_optionNumber",
          "type": "uint8"
        }
      ],
      "name": "vote",
      "outputs": [],
      "stateMutability": "nonpayable",
      "type": "function"
    },
    {
      "inputs": [],
      "name": "getAllPolls",
      "outputs": [
        {
          "components": [
            {
              "internalType": "address",
              "name": "creator",
              "type": "address"
            },
            {
              "internalType": "string",
              "name": "question",
              "type": "string"
            },
            {
              "internalType": "string[]",
              "name": "options",
              "type": "string[]"
            },
            {
              "internalType": "uint8",
              "name": "numberOfOptions",
              "type": "uint8"
            },
            {
              "internalType": "uint8",
              "name": "timeLimit",
              "type": "uint8"
            },
            {
              "internalType": "uint256",
              "name": "timeCreated",
              "type": "uint256"
            },
            {
              "internalType": "uint256[]",
              "name": "votes",
              "type": "uint256[]"
            }
          ],
          "internalType": "struct PollApp.Poll[]",
          "name": "",
          "type": "tuple[]"
        }
      ],
      "stateMutability": "view",
      "type": "function"
    },
    {
      "inputs": [
        {
          "internalType": "uint256",
          "name": "_pollNumber",
          "type": "uint256"
        }
      ],
      "name": "getVotes",
      "outputs": [
        {
          "internalType": "uint256[]",
          "name": "votes",
          "type": "uint256[]"
        }
      ],
      "stateMutability": "view",
      "type": "function"
    },
    {
      "inputs": [
        {
          "internalType": "address",
          "name": "_userAddress",
          "type": "address"
        }
      ],
      "name": "getUserVotes",
      "outputs": [
        {
          "components": [
            {
              "internalType": "uint256",
              "name": "poll",
              "type": "uint256"
            },
            {
              "internalType": "uint8",
              "name": "option",
              "type": "uint8"
            }
          ],
          "internalType": "struct PollApp.Vote[]",
          "name": "votes",
          "type": "tuple[]"
        }
      ],
      "stateMutability": "view",
      "type": "function"
    },
    {
      "inputs": [
        {
          "internalType": "uint256",
          "name": "_pollNumber",
          "type": "uint256"
        }
      ],
      "name": "getPollVotedUsers",
      "outputs": [
        {
          "internalType": "address[]",
          "name": "users",
          "type": "address[]"
        }
      ],
      "stateMutability": "view",
      "type": "function"
    },
    {
      "inputs": [
        {
          "internalType": "uint256",
          "name": "_pollNumber",
          "type": "uint256"
        },
        {
          "internalType": "address",
          "name": "_userAddress",
          "type": "address"
        }
      ],
      "name": "getUserPollVote",
      "outputs": [
        {
          "components": [
            {
              "internalType": "uint256",
              "name": "poll",
              "type": "uint256"
            },
            {
              "internalType": "uint8",
              "name": "option",
              "type": "uint8"
            }
          ],
          "internalType": "struct PollApp.Vote",
          "name": "userVote",
          "type": "tuple"
        }
      ],
      "stateMutability": "view",
      "type": "function"
    }
  ],
  "bytecode": "0x608060405234801561001057600080fd5b50612a8a806100206000396000f3fe608060405234801561001057600080fd5b506004361061009e5760003560e01c8063950c782211610066578063950c782214610172578063a38ace3c146101a2578063a5662583146101be578063fede8a79146101ee578063ff9810991461021e5761009e565b806332b633fa146100a35780634534b99e146100c15780638b3511f7146100f5578063934df0e114610126578063943e821614610156575b600080fd5b6100ab61024e565b6040516100b89190611b4e565b60405180910390f35b6100db60048036038101906100d69190611bb0565b61050a565b6040516100ec959493929190611c54565b60405180910390f35b61010f600480360381019061010a9190611cda565b610612565b60405161011d929190611d1a565b60405180910390f35b610140600480360381019061013b9190611d43565b610660565b60405161014d9190611d83565b60405180910390f35b610170600480360381019061016b9190611dca565b6106ae565b005b61018c60048036038101906101879190611e0a565b610d34565b6040516101999190611f15565b60405180910390f35b6101bc60048036038101906101b79190612152565b610df9565b005b6101d860048036038101906101d39190611bb0565b6111c6565b6040516101e591906122a0565b60405180910390f35b610208600480360381019061020391906122c2565b6112b0565b6040516102159190612331565b60405180910390f35b61023860048036038101906102339190611bb0565b611472565b60405161024591906123bb565b60405180910390f35b60606000805480602002602001604051908101604052809291908181526020016000905b8282101561050157838290600052602060002090600602016040518060e00160405290816000820160009054906101000a900473ffffffffffffffffffffffffffffffffffffffff1673ffffffffffffffffffffffffffffffffffffffff1673ffffffffffffffffffffffffffffffffffffffff1681526020016001820180546102fb9061240c565b80601f01602080910402602001604051908101604052809291908181526020018280546103279061240c565b80156103745780601f1061034957610100808354040283529160200191610374565b820191906000526020600020905b81548152906001019060200180831161035757829003601f168201915b5050505050815260200160028201805480602002602001604051908101604052809291908181526020016000905b8282101561044e5783829060005260206000200180546103c19061240c565b80601f01602080910402602001604051908101604052809291908181526020018280546103ed9061240c565b801561043a5780601f1061040f5761010080835404028352916020019161043a565b820191906000526020600020905b81548152906001019060200180831161041d57829003601f168201915b5050505050815260200190600101906103a2565b5050505081526020016003820160009054906101000a900460ff1660ff1660ff1681526020016003820160019054906101000a900460ff1660ff1660ff16815260200160048201548152602001600582018054806020026020016040519081016040528092919081815260200182805480156104e957602002820191906000526020600020905b8154815260200190600101908083116104d5575b50505050508152505081526020019060010190610272565b50505050905090565b6000818154811061051a57600080fd5b90600052602060002090600602016000915090508060000160009054906101000a900473ffffffffffffffffffffffffffffffffffffffff16908060010180546105639061240c565b80601f016020809104026020016040519081016040528092919081815260200182805461058f9061240c565b80156105dc5780601f106105b1576101008083540402835291602001916105dc565b820191906000526020600020905b8154815290600101906020018083116105bf57829003601f168201915b5050505050908060030160009054906101000a900460ff16908060030160019054906101000a900460ff16908060040154905085565b6001602052816000526040600020818154811061062e57600080fd5b9060005260206000209060020201600091509150508060000154908060010160009054906101000a900460ff16905082565b6002602052816000526040600020818154811061067c57600080fd5b906000526020600020016000915091509054906101000a900473ffffffffffffffffffffffffffffffffffffffff1681565b8160008054905081106106f6576040517f08c379a00000000000000000000000000000000000000000000000000000000081526004016106ed9061248a565b60405180910390fd5b82826000828154811061070c5761070b6124aa565b5b906000526020600020906006020160030160009054906101000a900460ff1660ff168160ff1610610772576040517f08c379a000000000000000000000000000000000000000000000000000000000815260040161076990612525565b60405180910390fd5b6000808381548110610787576107866124aa565b5b90600052602060002090600602016040518060e00160405290816000820160009054906101000a900473ffffffffffffffffffffffffffffffffffffffff1673ffffffffffffffffffffffffffffffffffffffff1673ffffffffffffffffffffffffffffffffffffffff1681526020016001820180546108069061240c565b80601f01602080910402602001604051908101604052809291908181526020018280546108329061240c565b801561087f5780601f106108545761010080835404028352916020019161087f565b820191906000526020600020905b81548152906001019060200180831161086257829003601f168201915b5050505050815260200160028201805480602002602001604051908101604052809291908181526020016000905b828210156109595783829060005260206000200180546108cc9061240c565b80601f01602080910402602001604051908101604052809291908181526020018280546108f89061240c565b80156109455780601f1061091a57610100808354040283529160200191610945565b820191906000526020600020905b81548152906001019060200180831161092857829003601f168201915b5050505050815260200190600101906108ad565b5050505081526020016003820160009054906101000a900460ff1660ff1660ff1681526020016003820160019054906101000a900460ff1660ff1660ff16815260200160048201548152602001600582018054806020026020016040519081016040528092919081815260200182805480156109f457602002820191906000526020600020905b8154815260200190600101908083116109e0575b5050505050815250509050610e10816080015160ff16610a149190612582565b61ffff168160a00151610a2791906125be565b421115610a69576040517f08c379a0000000000000000000000000000000000000000000000000000000008152600401610a6090612660565b60405180910390fd5b60005b6002600088815260200190815260200160002080549050811015610b5b573373ffffffffffffffffffffffffffffffffffffffff16600260008981526020019081526020016000208281548110610ac657610ac56124aa565b5b9060005260206000200160009054906101000a900473ffffffffffffffffffffffffffffffffffffffff1673ffffffffffffffffffffffffffffffffffffffff161415610b48576040517f08c379a0000000000000000000000000000000000000000000000000000000008152600401610b3f906126cc565b60405180910390fd5b8080610b53906126ec565b915050610a6c565b506000808781548110610b7157610b706124aa565b5b90600052602060002090600602019050806005018660ff1681548110610b9a57610b996124aa565b5b906000526020600020016000815480929190610bb5906126ec565b9190505550600160003373ffffffffffffffffffffffffffffffffffffffff1673ffffffffffffffffffffffffffffffffffffffff16815260200190815260200160002060405180604001604052808981526020018860ff1681525090806001815401808255809150506001900390600052602060002090600202016000909190919091506000820151816000015560208201518160010160006101000a81548160ff021916908360ff160217905550505060026000888152602001908152602001600020339080600181540180825580915050600190039060005260206000200160009091909190916101000a81548173ffffffffffffffffffffffffffffffffffffffff021916908373ffffffffffffffffffffffffffffffffffffffff1602179055503373ffffffffffffffffffffffffffffffffffffffff167f98855b7ed43590b2e2c6cd6ddab25b57bdd2d003771000174e0639eb22615bfa8888604051610d23929190611d1a565b60405180910390a250505050505050565b6060600160008373ffffffffffffffffffffffffffffffffffffffff1673ffffffffffffffffffffffffffffffffffffffff168152602001908152602001600020805480602002602001604051908101604052809291908181526020016000905b82821015610dee5783829060005260206000209060020201604051806040016040529081600082015481526020016001820160009054906101000a900460ff1660ff1660ff168152505081526020019060010190610d95565b505050509050919050565b838382604051602001610e0b9061275b565b6040516020818303038152906040528051906020012083604051602001610e32919061277b565b604051602081830303815290604052805190602001201415610e89576040517f08c379a0000000000000000000000000000000000000000000000000000000008152600401610e80906127e9565b60405180910390fd5b60008260ff1611610ecf576040517f08c379a0000000000000000000000000000000000000000000000000000000008152600401610ec69061287b565b60405180910390fd5b60188260ff161115610f16576040517f08c379a0000000000000000000000000000000000000000000000000000000008152600401610f0d9061290d565b60405180910390fd5b600181511415610f5b576040517f08c379a0000000000000000000000000000000000000000000000000000000008152600401610f5290612979565b60405180910390fd5b8460ff16845114610f6b57835194505b610f73611538565b87816020018190525033816000019073ffffffffffffffffffffffffffffffffffffffff16908173ffffffffffffffffffffffffffffffffffffffff168152505086816080019060ff16908160ff168152505085816060019060ff16908160ff1681525050848160400181905250428160a001818152505060008660ff1667ffffffffffffffff81111561100a57611009611f41565b5b6040519080825280602002602001820160405280156110385781602001602082028036833780820191505090505b509050808260c00181905250600082908060018154018082558091505060019003906000526020600020906006020160009091909190915060008201518160000160006101000a81548173ffffffffffffffffffffffffffffffffffffffff021916908373ffffffffffffffffffffffffffffffffffffffff16021790555060208201518160010190805190602001906110d3929190611591565b5060408201518160020190805190602001906110f0929190611617565b5060608201518160030160006101000a81548160ff021916908360ff16021790555060808201518160030160016101000a81548160ff021916908360ff16021790555060a0820151816004015560c0820151816005019080519060200190611159929190611677565b5050503373ffffffffffffffffffffffffffffffffffffffff167f253458ed40d765e300ef79d87f8b5a901191fbfc27d54b1ea052a6752908953c60016000805490506111a69190612999565b6040516111b391906129cd565b60405180910390a2505050505050505050565b6060816000805490508110611210576040517f08c379a00000000000000000000000000000000000000000000000000000000081526004016112079061248a565b60405180910390fd5b600260008481526020019081526020016000208054806020026020016040519081016040528092919081815260200182805480156112a357602002820191906000526020600020905b8160009054906101000a900473ffffffffffffffffffffffffffffffffffffffff1673ffffffffffffffffffffffffffffffffffffffff1681526020019060010190808311611259575b5050505050915050919050565b6112b86116c4565b826000805490508110611300576040517f08c379a00000000000000000000000000000000000000000000000000000000081526004016112f79061248a565b60405180910390fd5b6000600160008573ffffffffffffffffffffffffffffffffffffffff1673ffffffffffffffffffffffffffffffffffffffff168152602001908152602001600020805480602002602001604051908101604052809291908181526020016000905b828210156113ba5783829060005260206000209060020201604051806040016040529081600082015481526020016001820160009054906101000a900460ff1660ff1660ff168152505081526020019060010190611361565b5050505090506000805b825181101561142857868382815181106113e1576113e06124aa565b5b6020026020010151600001511415611415576001915082818151811061140a576114096124aa565b5b602002602001015194505b8080611420906126ec565b9150506113c4565b5080611469576040517f08c379a000000000000000000000000000000000000000000000000000000000815260040161146090612a34565b60405180910390fd5b50505092915050565b60608160008054905081106114bc576040517f08c379a00000000000000000000000000000000000000000000000000000000081526004016114b39061248a565b60405180910390fd5b600083815481106114d0576114cf6124aa565b5b906000526020600020906006020160050180548060200260200160405190810160405280929190818152602001828054801561152b57602002820191906000526020600020905b815481526020019060010190808311611517575b5050505050915050919050565b6040518060e00160405280600073ffffffffffffffffffffffffffffffffffffffff1681526020016060815260200160608152602001600060ff168152602001600060ff16815260200160008152602001606081525090565b82805461159d9061240c565b90600052602060002090601f0160209004810192826115bf5760008555611606565b82601f106115d857805160ff1916838001178555611606565b82800160010185558215611606579182015b828111156116055782518255916020019190600101906115ea565b5b50905061161391906116e1565b5090565b828054828255906000526020600020908101928215611666579160200282015b82811115611665578251829080519060200190611655929190611591565b5091602001919060010190611637565b5b50905061167391906116fe565b5090565b8280548282559060005260206000209081019282156116b3579160200282015b828111156116b2578251825591602001919060010190611697565b5b5090506116c091906116e1565b5090565b604051806040016040528060008152602001600060ff1681525090565b5b808211156116fa5760008160009055506001016116e2565b5090565b5b8082111561171e57600081816117159190611722565b506001016116ff565b5090565b50805461172e9061240c565b6000825580601f10611740575061175f565b601f01602090049060005260206000209081019061175e91906116e1565b5b50565b600081519050919050565b600082825260208201905092915050565b6000819050602082019050919050565b600073ffffffffffffffffffffffffffffffffffffffff82169050919050565b60006117b98261178e565b9050919050565b6117c9816117ae565b82525050565b600081519050919050565b600082825260208201905092915050565b60005b838110156118095780820151818401526020810190506117ee565b83811115611818576000848401525b50505050565b6000601f19601f8301169050919050565b600061183a826117cf565b61184481856117da565b93506118548185602086016117eb565b61185d8161181e565b840191505092915050565b600081519050919050565b600082825260208201905092915050565b6000819050602082019050919050565b60006118a0838361182f565b905092915050565b6000602082019050919050565b60006118c082611868565b6118ca8185611873565b9350836020820285016118dc85611884565b8060005b8581101561191857848403895281516118f98582611894565b9450611904836118a8565b925060208a019950506001810190506118e0565b50829750879550505050505092915050565b600060ff82169050919050565b6119408161192a565b82525050565b6000819050919050565b61195981611946565b82525050565b600081519050919050565b600082825260208201905092915050565b6000819050602082019050919050565b60006119978383611950565b60208301905092915050565b6000602082019050919050565b60006119bb8261195f565b6119c5818561196a565b93506119d08361197b565b8060005b83811015611a015781516119e8888261198b565b97506119f3836119a3565b9250506001810190506119d4565b5085935050505092915050565b600060e083016000830151611a2660008601826117c0565b5060208301518482036020860152611a3e828261182f565b91505060408301518482036040860152611a5882826118b5565b9150506060830151611a6d6060860182611937565b506080830151611a806080860182611937565b5060a0830151611a9360a0860182611950565b5060c083015184820360c0860152611aab82826119b0565b9150508091505092915050565b6000611ac48383611a0e565b905092915050565b6000602082019050919050565b6000611ae482611762565b611aee818561176d565b935083602082028501611b008561177e565b8060005b85811015611b3c5784840389528151611b1d8582611ab8565b9450611b2883611acc565b925060208a01995050600181019050611b04565b50829750879550505050505092915050565b60006020820190508181036000830152611b688184611ad9565b905092915050565b6000604051905090565b600080fd5b600080fd5b611b8d81611946565b8114611b9857600080fd5b50565b600081359050611baa81611b84565b92915050565b600060208284031215611bc657611bc5611b7a565b5b6000611bd484828501611b9b565b91505092915050565b611be6816117ae565b82525050565b600082825260208201905092915050565b6000611c08826117cf565b611c128185611bec565b9350611c228185602086016117eb565b611c2b8161181e565b840191505092915050565b611c3f8161192a565b82525050565b611c4e81611946565b82525050565b600060a082019050611c696000830188611bdd565b8181036020830152611c7b8187611bfd565b9050611c8a6040830186611c36565b611c976060830185611c36565b611ca46080830184611c45565b9695505050505050565b611cb7816117ae565b8114611cc257600080fd5b50565b600081359050611cd481611cae565b92915050565b60008060408385031215611cf157611cf0611b7a565b5b6000611cff85828601611cc5565b9250506020611d1085828601611b9b565b9150509250929050565b6000604082019050611d2f6000830185611c45565b611d3c6020830184611c36565b9392505050565b60008060408385031215611d5a57611d59611b7a565b5b6000611d6885828601611b9b565b9250506020611d7985828601611b9b565b9150509250929050565b6000602082019050611d986000830184611bdd565b92915050565b611da78161192a565b8114611db257600080fd5b50565b600081359050611dc481611d9e565b92915050565b60008060408385031215611de157611de0611b7a565b5b6000611def85828601611b9b565b9250506020611e0085828601611db5565b9150509250929050565b600060208284031215611e2057611e1f611b7a565b5b6000611e2e84828501611cc5565b91505092915050565b600081519050919050565b600082825260208201905092915050565b6000819050602082019050919050565b604082016000820151611e796000850182611950565b506020820151611e8c6020850182611937565b50505050565b6000611e9e8383611e63565b60408301905092915050565b6000602082019050919050565b6000611ec282611e37565b611ecc8185611e42565b9350611ed783611e53565b8060005b83811015611f08578151611eef8882611e92565b9750611efa83611eaa565b925050600181019050611edb565b5085935050505092915050565b60006020820190508181036000830152611f2f8184611eb7565b905092915050565b600080fd5b600080fd5b7f4e487b7100000000000000000000000000000000000000000000000000000000600052604160045260246000fd5b611f798261181e565b810181811067ffffffffffffffff82111715611f9857611f97611f41565b5b80604052505050565b6000611fab611b70565b9050611fb78282611f70565b919050565b600067ffffffffffffffff821115611fd757611fd6611f41565b5b611fe08261181e565b9050602081019050919050565b82818337600083830152505050565b600061200f61200a84611fbc565b611fa1565b90508281526020810184848401111561202b5761202a611f3c565b5b612036848285611fed565b509392505050565b600082601f83011261205357612052611f37565b5b8135612063848260208601611ffc565b91505092915050565b600067ffffffffffffffff82111561208757612086611f41565b5b602082029050602081019050919050565b600080fd5b60006120b06120ab8461206c565b611fa1565b905080838252602082019050602084028301858111156120d3576120d2612098565b5b835b8181101561211a57803567ffffffffffffffff8111156120f8576120f7611f37565b5b808601612105898261203e565b855260208501945050506020810190506120d5565b5050509392505050565b600082601f83011261213957612138611f37565b5b813561214984826020860161209d565b91505092915050565b6000806000806080858703121561216c5761216b611b7a565b5b600085013567ffffffffffffffff81111561218a57612189611b7f565b5b6121968782880161203e565b94505060206121a787828801611db5565b93505060406121b887828801611db5565b925050606085013567ffffffffffffffff8111156121d9576121d8611b7f565b5b6121e587828801612124565b91505092959194509250565b600081519050919050565b600082825260208201905092915050565b6000819050602082019050919050565b600061222983836117c0565b60208301905092915050565b6000602082019050919050565b600061224d826121f1565b61225781856121fc565b93506122628361220d565b8060005b8381101561229357815161227a888261221d565b975061228583612235565b925050600181019050612266565b5085935050505092915050565b600060208201905081810360008301526122ba8184612242565b905092915050565b600080604083850312156122d9576122d8611b7a565b5b60006122e785828601611b9b565b92505060206122f885828601611cc5565b9150509250929050565b6040820160008201516123186000850182611950565b50602082015161232b6020850182611937565b50505050565b60006040820190506123466000830184612302565b92915050565b600082825260208201905092915050565b60006123688261195f565b612372818561234c565b935061237d8361197b565b8060005b838110156123ae578151612395888261198b565b97506123a0836119a3565b925050600181019050612381565b5085935050505092915050565b600060208201905081810360008301526123d5818461235d565b905092915050565b7f4e487b7100000000000000000000000000000000000000000000000000000000600052602260045260246000fd5b6000600282049050600182168061242457607f821691505b60208210811415612438576124376123dd565b5b50919050565b7f496e76616c696420706f6c6c206e756d62657200000000000000000000000000600082015250565b6000612474601383611bec565b915061247f8261243e565b602082019050919050565b600060208201905081810360008301526124a381612467565b9050919050565b7f4e487b7100000000000000000000000000000000000000000000000000000000600052603260045260246000fd5b7f496e76616c6964206f7074696f6e206e756d6265720000000000000000000000600082015250565b600061250f601583611bec565b915061251a826124d9565b602082019050919050565b6000602082019050818103600083015261253e81612502565b9050919050565b600061ffff82169050919050565b7f4e487b7100000000000000000000000000000000000000000000000000000000600052601160045260246000fd5b600061258d82612545565b915061259883612545565b92508161ffff04831182151516156125b3576125b2612553565b5b828202905092915050565b60006125c982611946565b91506125d483611946565b9250827fffffffffffffffffffffffffffffffffffffffffffffffffffffffffffffffff0382111561260957612608612553565b5b828201905092915050565b7f54696d65206c696d697420657863656564656400000000000000000000000000600082015250565b600061264a601383611bec565b915061265582612614565b602082019050919050565b600060208201905081810360008301526126798161263d565b9050919050565b7f416c726561647920766f74656400000000000000000000000000000000000000600082015250565b60006126b6600d83611bec565b91506126c182612680565b602082019050919050565b600060208201905081810360008301526126e5816126a9565b9050919050565b60006126f782611946565b91507fffffffffffffffffffffffffffffffffffffffffffffffffffffffffffffffff82141561272a57612729612553565b5b600182019050919050565b50565b6000612745600083611bec565b915061275082612735565b600082019050919050565b6000602082019050818103600083015261277481612738565b9050919050565b600060208201905081810360008301526127958184611bfd565b905092915050565b7f5175657374696f6e20697320656d707479000000000000000000000000000000600082015250565b60006127d3601183611bec565b91506127de8261279d565b602082019050919050565b60006020820190508181036000830152612802816127c6565b9050919050565b7f54696d65206c696d69742063616e6e6f74206265206c657373207468616e203160008201527f20686f7572000000000000000000000000000000000000000000000000000000602082015250565b6000612865602583611bec565b915061287082612809565b604082019050919050565b6000602082019050818103600083015261289481612858565b9050919050565b7f54696d65206c696d69742063616e6e6f742065786365656420323420686f757260008201527f7300000000000000000000000000000000000000000000000000000000000000602082015250565b60006128f7602183611bec565b91506129028261289b565b604082019050919050565b60006020820190508181036000830152612926816128ea565b9050919050565b7f4f6e6c79206f6e65206f7074696f6e20676976656e0000000000000000000000600082015250565b6000612963601583611bec565b915061296e8261292d565b602082019050919050565b6000602082019050818103600083015261299281612956565b9050919050565b60006129a482611946565b91506129af83611946565b9250828210156129c2576129c1612553565b5b828203905092915050565b60006020820190506129e26000830184611c45565b92915050565b7f4e6f7420566f7465640000000000000000000000000000000000000000000000600082015250565b6000612a1e600983611bec565b9150612a29826129e8565b602082019050919050565b60006020820190508181036000830152612a4d81612a11565b905091905056fea2646970667358221220662dc1cf3f907f30b69732c404d3008a0069b385045007518cbd2513a6b6750664736f6c63430008090033",
  "immutableReferences": {},
  "source": "// SPDX-License-Identifier: MIT\r\n\r\npragma solidity ^0.8.0;\r\n\r\ncontract PollApp {\r\n    // poll structure\r\n    struct Poll {\r\n        address creator;\r\n        string question;\r\n        string[] options;\r\n        uint8 numberOfOptions;\r\n        uint8 timeLimit;\r\n        uint256 timeCreated;\r\n        uint256[] votes;\r\n    }\r\n\r\n    // dynamic polls array containing all the polls\r\n    Poll[] public pollsArray;\r\n\r\n    // user vote data structure\r\n    struct Vote {\r\n        uint256 poll;\r\n        uint8 option;\r\n    }\r\n\r\n    // mapping user to votes\r\n    // mappping poll to users\r\n    mapping(address => Vote[]) public userVotes;\r\n    mapping(uint256 => address[]) public pollVotes;\r\n\r\n    // event poll created\r\n    // event user voted\r\n    event PollCreated(address indexed creator, uint256 pollNumber);\r\n    event UserVoted(address indexed user, uint256 pollNumber, uint8 option);\r\n\r\n    // modifier to check if _pollNumber is valid\r\n    modifier pollExists(uint256 _pollNumber) {\r\n        require(_pollNumber < pollsArray.length, \"Invalid poll number\");\r\n        _;\r\n    }\r\n\r\n    // modifier to check if _question, _timeLimit and _options are valid\r\n    modifier pollCheck(\r\n        string memory _question,\r\n        uint8 _timeLimit,\r\n        string[] memory _options\r\n    ) {\r\n        require(\r\n            keccak256(abi.encode(_question)) != keccak256(abi.encode(\"\")),\r\n            \"Question is empty\"\r\n        );\r\n        require(_timeLimit > 0, \"Time limit cannot be less than 1 hour\");\r\n        require(_timeLimit <= 24, \"Time limit cannot exceed 24 hours\");\r\n        require(_options.length != 1, \"Only one option given\");\r\n        _;\r\n    }\r\n\r\n    // modifier to check if _optionNumber and voting time is valid\r\n    modifier voteCheck(uint256 _pollNumber, uint8 _optionNumber) {\r\n        require(\r\n            _optionNumber < pollsArray[_pollNumber].numberOfOptions,\r\n            \"Invalid option number\"\r\n        );\r\n        Poll memory poll = pollsArray[_pollNumber];\r\n        require(\r\n            block.timestamp <= poll.timeCreated + poll.timeLimit * 1 hours,\r\n            \"Time limit exceeded\"\r\n        );\r\n        _;\r\n    }\r\n\r\n    // function createPoll to create new polls and push it into pollsArray\r\n    function createPoll(\r\n        string memory _question,\r\n        uint8 _timeLimit,\r\n        uint8 _numberOfOptions,\r\n        string[] memory _options\r\n    ) public pollCheck(_question, _timeLimit, _options) {\r\n        if (_options.length != _numberOfOptions) {\r\n            _numberOfOptions = uint8(_options.length);\r\n        }\r\n        Poll memory poll;\r\n        poll.question = _question;\r\n        poll.creator = msg.sender;\r\n        poll.timeLimit = _timeLimit;\r\n        poll.numberOfOptions = _numberOfOptions;\r\n        poll.options = _options;\r\n        poll.timeCreated = block.timestamp;\r\n        uint256[] memory tempArray = new uint256[](_numberOfOptions);\r\n        poll.votes = tempArray;\r\n        pollsArray.push(poll);\r\n        emit PollCreated(msg.sender, pollsArray.length - 1);\r\n    }\r\n\r\n    // function vote to allow user to vote in a poll\r\n    function vote(uint256 _pollNumber, uint8 _optionNumber)\r\n        public\r\n        pollExists(_pollNumber)\r\n        voteCheck(_pollNumber, _optionNumber)\r\n    {\r\n        for (uint256 i = 0; i < pollVotes[_pollNumber].length; i++) {\r\n            if (pollVotes[_pollNumber][i] == msg.sender)\r\n                revert(\"Already voted\");\r\n        }\r\n        Poll storage poll = pollsArray[_pollNumber];\r\n        poll.votes[_optionNumber]++;\r\n        userVotes[msg.sender].push(Vote(_pollNumber, _optionNumber));\r\n        pollVotes[_pollNumber].push(msg.sender);\r\n        emit UserVoted(msg.sender, _pollNumber, _optionNumber);\r\n    }\r\n\r\n    // function getAllPolls returns the whole pollsArray\r\n    function getAllPolls() public view returns (Poll[] memory) {\r\n        return pollsArray;\r\n    }\r\n\r\n    // function getVotes returns votes of poll _pollNumber\r\n    function getVotes(uint256 _pollNumber)\r\n        public\r\n        view\r\n        pollExists(_pollNumber)\r\n        returns (uint256[] memory votes)\r\n    {\r\n        votes = pollsArray[_pollNumber].votes;\r\n    }\r\n\r\n    // function getUserVotes returns all votes made by the user\r\n    function getUserVotes(address _userAddress)\r\n        public\r\n        view\r\n        returns (Vote[] memory votes)\r\n    {\r\n        votes = userVotes[_userAddress];\r\n    }\r\n\r\n    // function getPollVotedUsers returns all users who voted in poll _pollnumber\r\n    function getPollVotedUsers(uint256 _pollNumber)\r\n        public\r\n        view\r\n        pollExists(_pollNumber)\r\n        returns (address[] memory users)\r\n    {\r\n        users = pollVotes[_pollNumber];\r\n    }\r\n\r\n    // function getUserPollVote returns the vote choice of the user _userAddress for the poll _pollNumber\r\n    function getUserPollVote(uint256 _pollNumber, address _userAddress)\r\n        public\r\n        view\r\n        pollExists(_pollNumber)\r\n        returns (Vote memory userVote)\r\n    {\r\n        Vote[] memory votes = userVotes[_userAddress];\r\n        bool hasVoted = false;\r\n        for (uint256 i = 0; i < votes.length; i++) {\r\n            if (votes[i].poll == _pollNumber) {\r\n                hasVoted = true;\r\n                userVote = votes[i];\r\n            }\r\n        }\r\n        if (!hasVoted) {\r\n            revert(\"Not Voted\");\r\n        }\r\n    }\r\n}\r\n",
  "sourcePath": "/mnt/d/SolidityProjects/Poll-dapp/contracts/PollApp.sol",
  "compiler": {
    "name": "solc",
    "version": "0.8.9+commit.e5eed63a.Emscripten.clang"
  },
  "schemaVersion": "3.4.3",
  "updatedAt": "2021-10-29T18:14:59.278Z",
  "devdoc": {
    "kind": "dev",
    "methods": {},
    "version": 1
  },
  "userdoc": {
    "kind": "user",
    "methods": {},
    "version": 1
  }
}