{
  "contractName": "PollApp",
  "abi": [
    {
      "anonymous": false,
      "inputs": [
        {
          "indexed": true,
          "internalType": "address",
          "name": "creator",
          "type": "address"
        },
        {
          "indexed": false,
          "internalType": "uint256",
          "name": "pollNumber",
          "type": "uint256"
        }
      ],
      "name": "PollCreated",
      "type": "event"
    },
    {
      "anonymous": false,
      "inputs": [
        {
          "indexed": true,
          "internalType": "address",
          "name": "user",
          "type": "address"
        },
        {
          "indexed": false,
          "internalType": "uint256",
          "name": "pollNumber",
          "type": "uint256"
        },
        {
          "indexed": false,
          "internalType": "uint8",
          "name": "option",
          "type": "uint8"
        }
      ],
      "name": "UserVoted",
      "type": "event"
    },
    {
      "inputs": [
        {
          "internalType": "uint256",
          "name": "",
          "type": "uint256"
        },
        {
          "internalType": "uint256",
          "name": "",
          "type": "uint256"
        }
      ],
      "name": "pollVotes",
      "outputs": [
        {
          "internalType": "address",
          "name": "",
          "type": "address"
        }
      ],
      "stateMutability": "view",
      "type": "function",
      "constant": true
    },
    {
      "inputs": [
        {
          "internalType": "uint256",
          "name": "",
          "type": "uint256"
        }
      ],
      "name": "pollsArray",
      "outputs": [
        {
          "internalType": "address",
          "name": "creator",
          "type": "address"
        },
        {
          "internalType": "string",
          "name": "question",
          "type": "string"
        },
        {
          "internalType": "uint8",
          "name": "numberOfOptions",
          "type": "uint8"
        },
        {
          "internalType": "uint256",
          "name": "timeCreated",
          "type": "uint256"
        },
        {
          "internalType": "uint256",
          "name": "endTime",
          "type": "uint256"
        }
      ],
      "stateMutability": "view",
      "type": "function",
      "constant": true
    },
    {
      "inputs": [
        {
          "internalType": "address",
          "name": "",
          "type": "address"
        },
        {
          "internalType": "uint256",
          "name": "",
          "type": "uint256"
        }
      ],
      "name": "userPolls",
      "outputs": [
        {
          "internalType": "uint256",
          "name": "",
          "type": "uint256"
        }
      ],
      "stateMutability": "view",
      "type": "function",
      "constant": true
    },
    {
      "inputs": [
        {
          "internalType": "address",
          "name": "",
          "type": "address"
        },
        {
          "internalType": "uint256",
          "name": "",
          "type": "uint256"
        }
      ],
      "name": "userVotes",
      "outputs": [
        {
          "internalType": "uint256",
          "name": "poll",
          "type": "uint256"
        },
        {
          "internalType": "uint8",
          "name": "option",
          "type": "uint8"
        }
      ],
      "stateMutability": "view",
      "type": "function",
      "constant": true
    },
    {
      "inputs": [
        {
          "internalType": "string",
          "name": "_question",
          "type": "string"
        },
        {
          "internalType": "uint8",
          "name": "_endTime",
          "type": "uint8"
        },
        {
          "internalType": "uint8",
          "name": "_numberOfOptions",
          "type": "uint8"
        },
        {
          "internalType": "string[]",
          "name": "_options",
          "type": "string[]"
        }
      ],
      "name": "createPoll",
      "outputs": [],
      "stateMutability": "nonpayable",
      "type": "function"
    },
    {
      "inputs": [
        {
          "internalType": "uint256",
          "name": "_pollNumber",
          "type": "uint256"
        },
        {
          "internalType": "uint8",
          "name": "_optionNumber",
          "type": "uint8"
        }
      ],
      "name": "vote",
      "outputs": [],
      "stateMutability": "nonpayable",
      "type": "function"
    },
    {
      "inputs": [],
      "name": "getAllPolls",
      "outputs": [
        {
          "components": [
            {
              "internalType": "address",
              "name": "creator",
              "type": "address"
            },
            {
              "internalType": "string",
              "name": "question",
              "type": "string"
            },
            {
              "internalType": "string[]",
              "name": "options",
              "type": "string[]"
            },
            {
              "internalType": "uint8",
              "name": "numberOfOptions",
              "type": "uint8"
            },
            {
              "internalType": "uint256",
              "name": "timeCreated",
              "type": "uint256"
            },
            {
              "internalType": "uint256",
              "name": "endTime",
              "type": "uint256"
            },
            {
              "internalType": "uint256[]",
              "name": "votes",
              "type": "uint256[]"
            }
          ],
          "internalType": "struct PollApp.Poll[]",
          "name": "",
          "type": "tuple[]"
        }
      ],
      "stateMutability": "view",
      "type": "function",
      "constant": true
    },
    {
      "inputs": [
        {
          "internalType": "uint256",
          "name": "_pollNumber",
          "type": "uint256"
        }
      ],
      "name": "getVotes",
      "outputs": [
        {
          "internalType": "uint256[]",
          "name": "votes",
          "type": "uint256[]"
        }
      ],
      "stateMutability": "view",
      "type": "function",
      "constant": true
    },
    {
      "inputs": [
        {
          "internalType": "address",
          "name": "_userAddress",
          "type": "address"
        }
      ],
      "name": "getUserVotes",
      "outputs": [
        {
          "components": [
            {
              "internalType": "uint256",
              "name": "poll",
              "type": "uint256"
            },
            {
              "internalType": "uint8",
              "name": "option",
              "type": "uint8"
            }
          ],
          "internalType": "struct PollApp.Vote[]",
          "name": "votes",
          "type": "tuple[]"
        }
      ],
      "stateMutability": "view",
      "type": "function",
      "constant": true
    },
    {
      "inputs": [
        {
          "internalType": "uint256",
          "name": "_pollNumber",
          "type": "uint256"
        }
      ],
      "name": "getPollVotedUsers",
      "outputs": [
        {
          "internalType": "address[]",
          "name": "users",
          "type": "address[]"
        }
      ],
      "stateMutability": "view",
      "type": "function",
      "constant": true
    },
    {
      "inputs": [
        {
          "internalType": "uint256",
          "name": "_pollNumber",
          "type": "uint256"
        },
        {
          "internalType": "address",
          "name": "_userAddress",
          "type": "address"
        }
      ],
      "name": "getUserPollVote",
      "outputs": [
        {
          "components": [
            {
              "internalType": "uint256",
              "name": "poll",
              "type": "uint256"
            },
            {
              "internalType": "uint8",
              "name": "option",
              "type": "uint8"
            }
          ],
          "internalType": "struct PollApp.Vote",
          "name": "userVote",
          "type": "tuple"
        }
      ],
      "stateMutability": "view",
      "type": "function",
      "constant": true
    },
    {
      "inputs": [
        {
          "internalType": "address",
          "name": "_userAddress",
          "type": "address"
        }
      ],
      "name": "getUserPolls",
      "outputs": [
        {
          "internalType": "uint256[]",
          "name": "pollsId",
          "type": "uint256[]"
        }
      ],
      "stateMutability": "view",
      "type": "function",
      "constant": true
    }
  ],
  "bytecode": "0x608060405234801561001057600080fd5b50612c97806100206000396000f3fe608060405234801561001057600080fd5b50600436106100b45760003560e01c8063943e821611610071578063943e8216146101cc578063950c7822146101e8578063a38ace3c14610218578063a566258314610234578063fede8a7914610264578063ff98109914610294576100b4565b806307f790e7146100b957806332b633fa146100e95780633c9066af146101075780634534b99e146101375780638b3511f71461016b578063934df0e11461019c575b600080fd5b6100d360048036038101906100ce9190611965565b6102c4565b6040516100e09190611a5a565b60405180910390f35b6100f161035b565b6040516100fe9190611ddd565b60405180910390f35b610121600480360381019061011c9190611e2b565b610604565b60405161012e9190611e7a565b60405180910390f35b610151600480360381019061014c9190611e95565b610635565b604051610162959493929190611f2a565b60405180910390f35b61018560048036038101906101809190611e2b565b610730565b604051610193929190611f84565b60405180910390f35b6101b660048036038101906101b19190611fad565b61077e565b6040516101c39190611fed565b60405180910390f35b6101e660048036038101906101e19190612034565b6107cc565b005b61020260048036038101906101fd9190611965565b610e61565b60405161020f9190612152565b60405180910390f35b610232600480360381019061022d919061238f565b610f26565b005b61024e60048036038101906102499190611e95565b61135a565b60405161025b91906124dd565b60405180910390f35b61027e600480360381019061027991906124ff565b611444565b60405161028b919061256e565b60405180910390f35b6102ae60048036038101906102a99190611e95565b611606565b6040516102bb9190611a5a565b60405180910390f35b6060600360008373ffffffffffffffffffffffffffffffffffffffff1673ffffffffffffffffffffffffffffffffffffffff16815260200190815260200160002080548060200260200160405190810160405280929190818152602001828054801561034f57602002820191906000526020600020905b81548152602001906001019080831161033b575b50505050509050919050565b60606000805480602002602001604051908101604052809291908181526020016000905b828210156105fb57838290600052602060002090600702016040518060e00160405290816000820160009054906101000a900473ffffffffffffffffffffffffffffffffffffffff1673ffffffffffffffffffffffffffffffffffffffff1673ffffffffffffffffffffffffffffffffffffffff168152602001600182018054610408906125b8565b80601f0160208091040260200160405190810160405280929190818152602001828054610434906125b8565b80156104815780601f1061045657610100808354040283529160200191610481565b820191906000526020600020905b81548152906001019060200180831161046457829003601f168201915b5050505050815260200160028201805480602002602001604051908101604052809291908181526020016000905b8282101561055b5783829060005260206000200180546104ce906125b8565b80601f01602080910402602001604051908101604052809291908181526020018280546104fa906125b8565b80156105475780601f1061051c57610100808354040283529160200191610547565b820191906000526020600020905b81548152906001019060200180831161052a57829003601f168201915b5050505050815260200190600101906104af565b5050505081526020016003820160009054906101000a900460ff1660ff1660ff1681526020016004820154815260200160058201548152602001600682018054806020026020016040519081016040528092919081815260200182805480156105e357602002820191906000526020600020905b8154815260200190600101908083116105cf575b5050505050815250508152602001906001019061037f565b50505050905090565b6003602052816000526040600020818154811061062057600080fd5b90600052602060002001600091509150505481565b6000818154811061064557600080fd5b90600052602060002090600702016000915090508060000160009054906101000a900473ffffffffffffffffffffffffffffffffffffffff169080600101805461068e906125b8565b80601f01602080910402602001604051908101604052809291908181526020018280546106ba906125b8565b80156107075780601f106106dc57610100808354040283529160200191610707565b820191906000526020600020905b8154815290600101906020018083116106ea57829003601f168201915b5050505050908060030160009054906101000a900460ff16908060040154908060050154905085565b6001602052816000526040600020818154811061074c57600080fd5b9060005260206000209060020201600091509150508060000154908060010160009054906101000a900460ff16905082565b6002602052816000526040600020818154811061079a57600080fd5b906000526020600020016000915091509054906101000a900473ffffffffffffffffffffffffffffffffffffffff1681565b816000805490508110610814576040517f08c379a000000000000000000000000000000000000000000000000000000000815260040161080b90612636565b60405180910390fd5b8282600080838154811061082b5761082a612656565b5b90600052602060002090600702016040518060e00160405290816000820160009054906101000a900473ffffffffffffffffffffffffffffffffffffffff1673ffffffffffffffffffffffffffffffffffffffff1673ffffffffffffffffffffffffffffffffffffffff1681526020016001820180546108aa906125b8565b80601f01602080910402602001604051908101604052809291908181526020018280546108d6906125b8565b80156109235780601f106108f857610100808354040283529160200191610923565b820191906000526020600020905b81548152906001019060200180831161090657829003601f168201915b5050505050815260200160028201805480602002602001604051908101604052809291908181526020016000905b828210156109fd578382906000526020600020018054610970906125b8565b80601f016020809104026020016040519081016040528092919081815260200182805461099c906125b8565b80156109e95780601f106109be576101008083540402835291602001916109e9565b820191906000526020600020905b8154815290600101906020018083116109cc57829003601f168201915b505050505081526020019060010190610951565b5050505081526020016003820160009054906101000a900460ff1660ff1660ff168152602001600482015481526020016005820154815260200160068201805480602002602001604051908101604052809291908181526020018280548015610a8557602002820191906000526020600020905b815481526020019060010190808311610a71575b5050505050815250509050806060015160ff168260ff1610610adc576040517f08c379a0000000000000000000000000000000000000000000000000000000008152600401610ad3906126d1565b60405180910390fd5b806000015173ffffffffffffffffffffffffffffffffffffffff163373ffffffffffffffffffffffffffffffffffffffff161415610b4f576040517f08c379a0000000000000000000000000000000000000000000000000000000008152600401610b469061273d565b60405180910390fd5b8060a00151421115610b96576040517f08c379a0000000000000000000000000000000000000000000000000000000008152600401610b8d906127a9565b60405180910390fd5b60005b6002600088815260200190815260200160002080549050811015610c88573373ffffffffffffffffffffffffffffffffffffffff16600260008981526020019081526020016000208281548110610bf357610bf2612656565b5b9060005260206000200160009054906101000a900473ffffffffffffffffffffffffffffffffffffffff1673ffffffffffffffffffffffffffffffffffffffff161415610c75576040517f08c379a0000000000000000000000000000000000000000000000000000000008152600401610c6c90612815565b60405180910390fd5b8080610c8090612864565b915050610b99565b506000808781548110610c9e57610c9d612656565b5b90600052602060002090600702019050806006018660ff1681548110610cc757610cc6612656565b5b906000526020600020016000815480929190610ce290612864565b9190505550600160003373ffffffffffffffffffffffffffffffffffffffff1673ffffffffffffffffffffffffffffffffffffffff16815260200190815260200160002060405180604001604052808981526020018860ff1681525090806001815401808255809150506001900390600052602060002090600202016000909190919091506000820151816000015560208201518160010160006101000a81548160ff021916908360ff160217905550505060026000888152602001908152602001600020339080600181540180825580915050600190039060005260206000200160009091909190916101000a81548173ffffffffffffffffffffffffffffffffffffffff021916908373ffffffffffffffffffffffffffffffffffffffff1602179055503373ffffffffffffffffffffffffffffffffffffffff167f98855b7ed43590b2e2c6cd6ddab25b57bdd2d003771000174e0639eb22615bfa8888604051610e50929190611f84565b60405180910390a250505050505050565b6060600160008373ffffffffffffffffffffffffffffffffffffffff1673ffffffffffffffffffffffffffffffffffffffff168152602001908152602001600020805480602002602001604051908101604052809291908181526020016000905b82821015610f1b5783829060005260206000209060020201604051806040016040529081600082015481526020016001820160009054906101000a900460ff1660ff1660ff168152505081526020019060010190610ec2565b505050509050919050565b838382604051602001610f38906128d3565b6040516020818303038152906040528051906020012083604051602001610f5f91906128f3565b604051602081830303815290604052805190602001201415610fb6576040517f08c379a0000000000000000000000000000000000000000000000000000000008152600401610fad90612961565b60405180910390fd5b60008260ff1611610ffc576040517f08c379a0000000000000000000000000000000000000000000000000000000008152600401610ff3906129f3565b60405180910390fd5b60188260ff161115611043576040517f08c379a000000000000000000000000000000000000000000000000000000000815260040161103a90612a85565b60405180910390fd5b600181511415611088576040517f08c379a000000000000000000000000000000000000000000000000000000000815260040161107f90612af1565b60405180910390fd5b8460ff1684511461109857835194505b6110a06116cc565b87816020018190525033816000019073ffffffffffffffffffffffffffffffffffffffff16908173ffffffffffffffffffffffffffffffffffffffff1681525050610e108760ff166110f29190612b11565b426110fd9190612b6b565b8160a001818152505085816060019060ff16908160ff16815250508481604001819052504281608001818152505060008660ff1667ffffffffffffffff81111561114a5761114961217e565b5b6040519080825280602002602001820160405280156111785781602001602082028036833780820191505090505b509050808260c00181905250600360003373ffffffffffffffffffffffffffffffffffffffff1673ffffffffffffffffffffffffffffffffffffffff1681526020019081526020016000206000805490509080600181540180825580915050600190039060005260206000200160009091909190915055600082908060018154018082558091505060019003906000526020600020906007020160009091909190915060008201518160000160006101000a81548173ffffffffffffffffffffffffffffffffffffffff021916908373ffffffffffffffffffffffffffffffffffffffff160217905550602082015181600101908051906020019061127e929190611722565b50604082015181600201908051906020019061129b9291906117a8565b5060608201518160030160006101000a81548160ff021916908360ff1602179055506080820151816004015560a0820151816005015560c08201518160060190805190602001906112ed929190611808565b5050503373ffffffffffffffffffffffffffffffffffffffff167f253458ed40d765e300ef79d87f8b5a901191fbfc27d54b1ea052a6752908953c600160008054905061133a9190612bc1565b6040516113479190611e7a565b60405180910390a2505050505050505050565b60608160008054905081106113a4576040517f08c379a000000000000000000000000000000000000000000000000000000000815260040161139b90612636565b60405180910390fd5b6002600084815260200190815260200160002080548060200260200160405190810160405280929190818152602001828054801561143757602002820191906000526020600020905b8160009054906101000a900473ffffffffffffffffffffffffffffffffffffffff1673ffffffffffffffffffffffffffffffffffffffff16815260200190600101908083116113ed575b5050505050915050919050565b61144c611855565b826000805490508110611494576040517f08c379a000000000000000000000000000000000000000000000000000000000815260040161148b90612636565b60405180910390fd5b6000600160008573ffffffffffffffffffffffffffffffffffffffff1673ffffffffffffffffffffffffffffffffffffffff168152602001908152602001600020805480602002602001604051908101604052809291908181526020016000905b8282101561154e5783829060005260206000209060020201604051806040016040529081600082015481526020016001820160009054906101000a900460ff1660ff1660ff1681525050815260200190600101906114f5565b5050505090506000805b82518110156115bc578683828151811061157557611574612656565b5b60200260200101516000015114156115a9576001915082818151811061159e5761159d612656565b5b602002602001015194505b80806115b490612864565b915050611558565b50806115fd576040517f08c379a00000000000000000000000000000000000000000000000000000000081526004016115f490612c41565b60405180910390fd5b50505092915050565b6060816000805490508110611650576040517f08c379a000000000000000000000000000000000000000000000000000000000815260040161164790612636565b60405180910390fd5b6000838154811061166457611663612656565b5b90600052602060002090600702016006018054806020026020016040519081016040528092919081815260200182805480156116bf57602002820191906000526020600020905b8154815260200190600101908083116116ab575b5050505050915050919050565b6040518060e00160405280600073ffffffffffffffffffffffffffffffffffffffff1681526020016060815260200160608152602001600060ff1681526020016000815260200160008152602001606081525090565b82805461172e906125b8565b90600052602060002090601f0160209004810192826117505760008555611797565b82601f1061176957805160ff1916838001178555611797565b82800160010185558215611797579182015b8281111561179657825182559160200191906001019061177b565b5b5090506117a49190611872565b5090565b8280548282559060005260206000209081019282156117f7579160200282015b828111156117f65782518290805190602001906117e6929190611722565b50916020019190600101906117c8565b5b509050611804919061188f565b5090565b828054828255906000526020600020908101928215611844579160200282015b82811115611843578251825591602001919060010190611828565b5b5090506118519190611872565b5090565b604051806040016040528060008152602001600060ff1681525090565b5b8082111561188b576000816000905550600101611873565b5090565b5b808211156118af57600081816118a691906118b3565b50600101611890565b5090565b5080546118bf906125b8565b6000825580601f106118d157506118f0565b601f0160209004906000526020600020908101906118ef9190611872565b5b50565b6000604051905090565b600080fd5b600080fd5b600073ffffffffffffffffffffffffffffffffffffffff82169050919050565b600061193282611907565b9050919050565b61194281611927565b811461194d57600080fd5b50565b60008135905061195f81611939565b92915050565b60006020828403121561197b5761197a6118fd565b5b600061198984828501611950565b91505092915050565b600081519050919050565b600082825260208201905092915050565b6000819050602082019050919050565b6000819050919050565b6119d1816119be565b82525050565b60006119e383836119c8565b60208301905092915050565b6000602082019050919050565b6000611a0782611992565b611a11818561199d565b9350611a1c836119ae565b8060005b83811015611a4d578151611a3488826119d7565b9750611a3f836119ef565b925050600181019050611a20565b5085935050505092915050565b60006020820190508181036000830152611a7481846119fc565b905092915050565b600081519050919050565b600082825260208201905092915050565b6000819050602082019050919050565b611ab181611927565b82525050565b600081519050919050565b600082825260208201905092915050565b60005b83811015611af1578082015181840152602081019050611ad6565b83811115611b00576000848401525b50505050565b6000601f19601f8301169050919050565b6000611b2282611ab7565b611b2c8185611ac2565b9350611b3c818560208601611ad3565b611b4581611b06565b840191505092915050565b600081519050919050565b600082825260208201905092915050565b6000819050602082019050919050565b6000611b888383611b17565b905092915050565b6000602082019050919050565b6000611ba882611b50565b611bb28185611b5b565b935083602082028501611bc485611b6c565b8060005b85811015611c005784840389528151611be18582611b7c565b9450611bec83611b90565b925060208a01995050600181019050611bc8565b50829750879550505050505092915050565b600060ff82169050919050565b611c2881611c12565b82525050565b600082825260208201905092915050565b6000611c4a82611992565b611c548185611c2e565b9350611c5f836119ae565b8060005b83811015611c90578151611c7788826119d7565b9750611c82836119ef565b925050600181019050611c63565b5085935050505092915050565b600060e083016000830151611cb56000860182611aa8565b5060208301518482036020860152611ccd8282611b17565b91505060408301518482036040860152611ce78282611b9d565b9150506060830151611cfc6060860182611c1f565b506080830151611d0f60808601826119c8565b5060a0830151611d2260a08601826119c8565b5060c083015184820360c0860152611d3a8282611c3f565b9150508091505092915050565b6000611d538383611c9d565b905092915050565b6000602082019050919050565b6000611d7382611a7c565b611d7d8185611a87565b935083602082028501611d8f85611a98565b8060005b85811015611dcb5784840389528151611dac8582611d47565b9450611db783611d5b565b925060208a01995050600181019050611d93565b50829750879550505050505092915050565b60006020820190508181036000830152611df78184611d68565b905092915050565b611e08816119be565b8114611e1357600080fd5b50565b600081359050611e2581611dff565b92915050565b60008060408385031215611e4257611e416118fd565b5b6000611e5085828601611950565b9250506020611e6185828601611e16565b9150509250929050565b611e74816119be565b82525050565b6000602082019050611e8f6000830184611e6b565b92915050565b600060208284031215611eab57611eaa6118fd565b5b6000611eb984828501611e16565b91505092915050565b611ecb81611927565b82525050565b600082825260208201905092915050565b6000611eed82611ab7565b611ef78185611ed1565b9350611f07818560208601611ad3565b611f1081611b06565b840191505092915050565b611f2481611c12565b82525050565b600060a082019050611f3f6000830188611ec2565b8181036020830152611f518187611ee2565b9050611f606040830186611f1b565b611f6d6060830185611e6b565b611f7a6080830184611e6b565b9695505050505050565b6000604082019050611f996000830185611e6b565b611fa66020830184611f1b565b9392505050565b60008060408385031215611fc457611fc36118fd565b5b6000611fd285828601611e16565b9250506020611fe385828601611e16565b9150509250929050565b60006020820190506120026000830184611ec2565b92915050565b61201181611c12565b811461201c57600080fd5b50565b60008135905061202e81612008565b92915050565b6000806040838503121561204b5761204a6118fd565b5b600061205985828601611e16565b925050602061206a8582860161201f565b9150509250929050565b600081519050919050565b600082825260208201905092915050565b6000819050602082019050919050565b6040820160008201516120b660008501826119c8565b5060208201516120c96020850182611c1f565b50505050565b60006120db83836120a0565b60408301905092915050565b6000602082019050919050565b60006120ff82612074565b612109818561207f565b935061211483612090565b8060005b8381101561214557815161212c88826120cf565b9750612137836120e7565b925050600181019050612118565b5085935050505092915050565b6000602082019050818103600083015261216c81846120f4565b905092915050565b600080fd5b600080fd5b7f4e487b7100000000000000000000000000000000000000000000000000000000600052604160045260246000fd5b6121b682611b06565b810181811067ffffffffffffffff821117156121d5576121d461217e565b5b80604052505050565b60006121e86118f3565b90506121f482826121ad565b919050565b600067ffffffffffffffff8211156122145761221361217e565b5b61221d82611b06565b9050602081019050919050565b82818337600083830152505050565b600061224c612247846121f9565b6121de565b90508281526020810184848401111561226857612267612179565b5b61227384828561222a565b509392505050565b600082601f8301126122905761228f612174565b5b81356122a0848260208601612239565b91505092915050565b600067ffffffffffffffff8211156122c4576122c361217e565b5b602082029050602081019050919050565b600080fd5b60006122ed6122e8846122a9565b6121de565b905080838252602082019050602084028301858111156123105761230f6122d5565b5b835b8181101561235757803567ffffffffffffffff81111561233557612334612174565b5b808601612342898261227b565b85526020850194505050602081019050612312565b5050509392505050565b600082601f83011261237657612375612174565b5b81356123868482602086016122da565b91505092915050565b600080600080608085870312156123a9576123a86118fd565b5b600085013567ffffffffffffffff8111156123c7576123c6611902565b5b6123d38782880161227b565b94505060206123e48782880161201f565b93505060406123f58782880161201f565b925050606085013567ffffffffffffffff81111561241657612415611902565b5b61242287828801612361565b91505092959194509250565b600081519050919050565b600082825260208201905092915050565b6000819050602082019050919050565b60006124668383611aa8565b60208301905092915050565b6000602082019050919050565b600061248a8261242e565b6124948185612439565b935061249f8361244a565b8060005b838110156124d05781516124b7888261245a565b97506124c283612472565b9250506001810190506124a3565b5085935050505092915050565b600060208201905081810360008301526124f7818461247f565b905092915050565b60008060408385031215612516576125156118fd565b5b600061252485828601611e16565b925050602061253585828601611950565b9150509250929050565b60408201600082015161255560008501826119c8565b5060208201516125686020850182611c1f565b50505050565b6000604082019050612583600083018461253f565b92915050565b7f4e487b7100000000000000000000000000000000000000000000000000000000600052602260045260246000fd5b600060028204905060018216806125d057607f821691505b602082108114156125e4576125e3612589565b5b50919050565b7f496e76616c696420706f6c6c206e756d62657200000000000000000000000000600082015250565b6000612620601383611ed1565b915061262b826125ea565b602082019050919050565b6000602082019050818103600083015261264f81612613565b9050919050565b7f4e487b7100000000000000000000000000000000000000000000000000000000600052603260045260246000fd5b7f496e76616c6964206f7074696f6e206e756d6265720000000000000000000000600082015250565b60006126bb601583611ed1565b91506126c682612685565b602082019050919050565b600060208201905081810360008301526126ea816126ae565b9050919050565b7f63726561746f722068696d73656c662063616e6e6f7420766f74650000000000600082015250565b6000612727601b83611ed1565b9150612732826126f1565b602082019050919050565b600060208201905081810360008301526127568161271a565b9050919050565b7f54696d65206c696d697420657863656564656400000000000000000000000000600082015250565b6000612793601383611ed1565b915061279e8261275d565b602082019050919050565b600060208201905081810360008301526127c281612786565b9050919050565b7f416c726561647920766f74656400000000000000000000000000000000000000600082015250565b60006127ff600d83611ed1565b915061280a826127c9565b602082019050919050565b6000602082019050818103600083015261282e816127f2565b9050919050565b7f4e487b7100000000000000000000000000000000000000000000000000000000600052601160045260246000fd5b600061286f826119be565b91507fffffffffffffffffffffffffffffffffffffffffffffffffffffffffffffffff8214156128a2576128a1612835565b5b600182019050919050565b50565b60006128bd600083611ed1565b91506128c8826128ad565b600082019050919050565b600060208201905081810360008301526128ec816128b0565b9050919050565b6000602082019050818103600083015261290d8184611ee2565b905092915050565b7f5175657374696f6e20697320656d707479000000000000000000000000000000600082015250565b600061294b601183611ed1565b915061295682612915565b602082019050919050565b6000602082019050818103600083015261297a8161293e565b9050919050565b7f54696d65206c696d69742063616e6e6f74206265206c657373207468616e203160008201527f20686f7572000000000000000000000000000000000000000000000000000000602082015250565b60006129dd602583611ed1565b91506129e882612981565b604082019050919050565b60006020820190508181036000830152612a0c816129d0565b9050919050565b7f54696d65206c696d69742063616e6e6f742065786365656420323420686f757260008201527f7300000000000000000000000000000000000000000000000000000000000000602082015250565b6000612a6f602183611ed1565b9150612a7a82612a13565b604082019050919050565b60006020820190508181036000830152612a9e81612a62565b9050919050565b7f4f6e6c79206f6e65206f7074696f6e20676976656e0000000000000000000000600082015250565b6000612adb601583611ed1565b9150612ae682612aa5565b602082019050919050565b60006020820190508181036000830152612b0a81612ace565b9050919050565b6000612b1c826119be565b9150612b27836119be565b9250817fffffffffffffffffffffffffffffffffffffffffffffffffffffffffffffffff0483118215151615612b6057612b5f612835565b5b828202905092915050565b6000612b76826119be565b9150612b81836119be565b9250827fffffffffffffffffffffffffffffffffffffffffffffffffffffffffffffffff03821115612bb657612bb5612835565b5b828201905092915050565b6000612bcc826119be565b9150612bd7836119be565b925082821015612bea57612be9612835565b5b828203905092915050565b7f4e6f7420566f7465640000000000000000000000000000000000000000000000600082015250565b6000612c2b600983611ed1565b9150612c3682612bf5565b602082019050919050565b60006020820190508181036000830152612c5a81612c1e565b905091905056fea2646970667358221220715d5aa1072cd78a888a8417ac9e5a63df80cb736cdb8ae13e464c37419d53fa64736f6c63430008090033",
  "immutableReferences": {},
  "source": "// SPDX-License-Identifier: MIT\r\n\r\npragma solidity ^0.8.0;\r\n\r\ncontract PollApp {\r\n    // poll structure\r\n    struct Poll {\r\n        address creator;\r\n        string question;\r\n        string[] options;\r\n        uint8 numberOfOptions;\r\n        uint256 timeCreated;\r\n        uint256 endTime;\r\n        uint256[] votes;\r\n    }\r\n\r\n    // dynamic polls array containing all the polls\r\n    Poll[] public pollsArray;\r\n\r\n    // user vote data structure\r\n    struct Vote {\r\n        uint256 poll;\r\n        uint8 option;\r\n    }\r\n\r\n    // mapping user to votes\r\n    // mappping poll to users\r\n    // mapping creators to pollId\r\n    mapping(address => Vote[]) public userVotes;\r\n    mapping(uint256 => address[]) public pollVotes;\r\n    mapping(address => uint256[]) public userPolls;\r\n\r\n    // event poll created\r\n    // event user voted\r\n    event PollCreated(address indexed creator, uint256 pollNumber);\r\n    event UserVoted(address indexed user, uint256 pollNumber, uint8 option);\r\n\r\n    // modifier to check if _pollNumber is valid\r\n    modifier pollExists(uint256 _pollNumber) {\r\n        require(_pollNumber < pollsArray.length, \"Invalid poll number\");\r\n        _;\r\n    }\r\n\r\n    // modifier to check if _question, _endTime and _options are valid\r\n    modifier pollCheck(\r\n        string memory _question,\r\n        uint8 _endTime,\r\n        string[] memory _options\r\n    ) {\r\n        require(\r\n            keccak256(abi.encode(_question)) != keccak256(abi.encode(\"\")),\r\n            \"Question is empty\"\r\n        );\r\n        require(_endTime > 0, \"Time limit cannot be less than 1 hour\");\r\n        require(_endTime <= 24, \"Time limit cannot exceed 24 hours\");\r\n        require(_options.length != 1, \"Only one option given\");\r\n        _;\r\n    }\r\n\r\n    // modifier to check if _optionNumber and voting time is valid\r\n    modifier voteCheck(uint256 _pollNumber, uint8 _optionNumber) {\r\n        Poll memory poll = pollsArray[_pollNumber];\r\n        require(_optionNumber < poll.numberOfOptions, \"Invalid option number\");\r\n        require(msg.sender != poll.creator, \"creator himself cannot vote\");\r\n        require(block.timestamp <= poll.endTime, \"Time limit exceeded\");\r\n        _;\r\n    }\r\n\r\n    // function createPoll to create new polls and push it into pollsArray\r\n    function createPoll(\r\n        string memory _question,\r\n        uint8 _endTime,\r\n        uint8 _numberOfOptions,\r\n        string[] memory _options\r\n    ) public pollCheck(_question, _endTime, _options) {\r\n        if (_options.length != _numberOfOptions) {\r\n            _numberOfOptions = uint8(_options.length);\r\n        }\r\n        Poll memory poll;\r\n        poll.question = _question;\r\n        poll.creator = msg.sender;\r\n        poll.endTime = block.timestamp + uint256(_endTime) * 3600;\r\n        poll.numberOfOptions = _numberOfOptions;\r\n        poll.options = _options;\r\n        poll.timeCreated = block.timestamp;\r\n        uint256[] memory tempArray = new uint256[](_numberOfOptions);\r\n        poll.votes = tempArray;\r\n        userPolls[msg.sender].push(pollsArray.length);\r\n        pollsArray.push(poll);\r\n        emit PollCreated(msg.sender, pollsArray.length - 1);\r\n    }\r\n\r\n    // function vote to allow user to vote in a poll\r\n    function vote(uint256 _pollNumber, uint8 _optionNumber)\r\n        public\r\n        pollExists(_pollNumber)\r\n        voteCheck(_pollNumber, _optionNumber)\r\n    {\r\n        for (uint256 i = 0; i < pollVotes[_pollNumber].length; i++) {\r\n            if (pollVotes[_pollNumber][i] == msg.sender)\r\n                revert(\"Already voted\");\r\n        }\r\n        Poll storage poll = pollsArray[_pollNumber];\r\n        poll.votes[_optionNumber]++;\r\n        userVotes[msg.sender].push(Vote(_pollNumber, _optionNumber));\r\n        pollVotes[_pollNumber].push(msg.sender);\r\n        emit UserVoted(msg.sender, _pollNumber, _optionNumber);\r\n    }\r\n\r\n    // function getAllPolls returns the whole pollsArray\r\n    function getAllPolls() public view returns (Poll[] memory) {\r\n        return pollsArray;\r\n    }\r\n\r\n    // function getVotes returns votes of poll _pollNumber\r\n    function getVotes(uint256 _pollNumber)\r\n        public\r\n        view\r\n        pollExists(_pollNumber)\r\n        returns (uint256[] memory votes)\r\n    {\r\n        votes = pollsArray[_pollNumber].votes;\r\n    }\r\n\r\n    // function getUserVotes returns all votes made by the user\r\n    function getUserVotes(address _userAddress)\r\n        public\r\n        view\r\n        returns (Vote[] memory votes)\r\n    {\r\n        votes = userVotes[_userAddress];\r\n    }\r\n\r\n    // function getPollVotedUsers returns all users who voted in poll _pollnumber\r\n    function getPollVotedUsers(uint256 _pollNumber)\r\n        public\r\n        view\r\n        pollExists(_pollNumber)\r\n        returns (address[] memory users)\r\n    {\r\n        users = pollVotes[_pollNumber];\r\n    }\r\n\r\n    // function getUserPollVote returns the vote choice of the user _userAddress for the poll _pollNumber\r\n    function getUserPollVote(uint256 _pollNumber, address _userAddress)\r\n        public\r\n        view\r\n        pollExists(_pollNumber)\r\n        returns (Vote memory userVote)\r\n    {\r\n        Vote[] memory votes = userVotes[_userAddress];\r\n        bool hasVoted = false;\r\n        for (uint256 i = 0; i < votes.length; i++) {\r\n            if (votes[i].poll == _pollNumber) {\r\n                hasVoted = true;\r\n                userVote = votes[i];\r\n            }\r\n        }\r\n        if (!hasVoted) {\r\n            revert(\"Not Voted\");\r\n        }\r\n    }\r\n\r\n    // function getUserPolls returns an array of poll ids of the _userAddress\r\n    function getUserPolls(address _userAddress)\r\n        public\r\n        view\r\n        returns (uint256[] memory pollsId)\r\n    {\r\n        pollsId = userPolls[_userAddress];\r\n    }\r\n}\r\n",
  "sourcePath": "/mnt/d/SolidityProjects/Poll-dapp/contracts/PollApp.sol",
  "compiler": {
    "name": "solc",
    "version": "0.8.9+commit.e5eed63a.Emscripten.clang"
  },
  "schemaVersion": "3.4.3",
  "updatedAt": "2021-11-04T14:06:19.153Z",
  "networkType": "ethereum",
  "devdoc": {
    "kind": "dev",
    "methods": {},
    "version": 1
  },
  "userdoc": {
    "kind": "user",
    "methods": {},
    "version": 1
  }
}